{
  "contractName": "Exchange",
  "abi": [
    {
      "inputs": [
        {
          "internalType": "contract SahayogiToken",
          "name": "_erc20",
          "type": "address"
        }
      ],
      "stateMutability": "nonpayable",
      "type": "constructor"
    },
    {
      "inputs": [],
      "name": "erc20",
      "outputs": [
        {
          "internalType": "contract SahayogiToken",
          "name": "",
          "type": "address"
        }
      ],
      "stateMutability": "view",
      "type": "function"
    },
    {
      "inputs": [],
      "name": "rate",
      "outputs": [
        {
          "internalType": "uint256",
          "name": "",
          "type": "uint256"
        }
      ],
      "stateMutability": "view",
      "type": "function"
    },
    {
      "inputs": [],
      "name": "getTokens",
      "outputs": [],
      "stateMutability": "payable",
      "type": "function"
    },
    {
      "inputs": [
        {
          "internalType": "uint256",
          "name": "_amount",
          "type": "uint256"
        }
      ],
      "name": "getEther",
      "outputs": [],
      "stateMutability": "nonpayable",
      "type": "function"
    }
  ],
  "bytecode": "0x6080604052670de0b6b3a764000060015534801561001c57600080fd5b50604051610b44380380610b44833981810160405281019061003e91906100f9565b806000806101000a81548173ffffffffffffffffffffffffffffffffffffffff021916908373ffffffffffffffffffffffffffffffffffffffff16021790555050610126565b600080fd5b600073ffffffffffffffffffffffffffffffffffffffff82169050919050565b60006100b482610089565b9050919050565b60006100c6826100a9565b9050919050565b6100d6816100bb565b81146100e157600080fd5b50565b6000815190506100f3816100cd565b92915050565b60006020828403121561010f5761010e610084565b5b600061011d848285016100e4565b91505092915050565b610a0f806101356000396000f3fe60806040526004361061003f5760003560e01c80632c4e722e14610044578063785e9e861461006f578063aa6ca8081461009a578063f04961ba146100a4575b600080fd5b34801561005057600080fd5b506100596100cd565b60405161006691906104f9565b60405180910390f35b34801561007b57600080fd5b506100846100d3565b6040516100919190610593565b60405180910390f35b6100a26100f7565b005b3480156100b057600080fd5b506100cb60048036038101906100c691906105df565b6102a5565b005b60015481565b60008054906101000a900473ffffffffffffffffffffffffffffffffffffffff1681565b600060015434610107919061066a565b90508060008054906101000a900473ffffffffffffffffffffffffffffffffffffffff1673ffffffffffffffffffffffffffffffffffffffff166370a08231306040518263ffffffff1660e01b815260040161016391906106bc565b60206040518083038186803b15801561017b57600080fd5b505afa15801561018f573d6000803e3d6000fd5b505050506040513d601f19601f820116820180604052508101906101b391906106ec565b10156101f4576040517f08c379a00000000000000000000000000000000000000000000000000000000081526004016101eb9061079c565b60405180910390fd5b60008054906101000a900473ffffffffffffffffffffffffffffffffffffffff1673ffffffffffffffffffffffffffffffffffffffff1663a9059cbb33836040518363ffffffff1660e01b815260040161024f9291906107bc565b602060405180830381600087803b15801561026957600080fd5b505af115801561027d573d6000803e3d6000fd5b505050506040513d601f19601f820116820180604052508101906102a1919061081d565b5050565b8060008054906101000a900473ffffffffffffffffffffffffffffffffffffffff1673ffffffffffffffffffffffffffffffffffffffff166370a08231336040518263ffffffff1660e01b81526004016102ff91906106bc565b60206040518083038186803b15801561031757600080fd5b505afa15801561032b573d6000803e3d6000fd5b505050506040513d601f19601f8201168201806040525081019061034f91906106ec565b1015610390576040517f08c379a0000000000000000000000000000000000000000000000000000000008152600401610387906108bc565b60405180910390fd5b6000600154826103a091906108dc565b9050804710156103e5576040517f08c379a00000000000000000000000000000000000000000000000000000000081526004016103dc90610982565b60405180910390fd5b60008054906101000a900473ffffffffffffffffffffffffffffffffffffffff1673ffffffffffffffffffffffffffffffffffffffff166323b872dd3330856040518463ffffffff1660e01b8152600401610442939291906109a2565b602060405180830381600087803b15801561045c57600080fd5b505af1158015610470573d6000803e3d6000fd5b505050506040513d601f19601f82011682018060405250810190610494919061081d565b503373ffffffffffffffffffffffffffffffffffffffff166108fc829081150290604051600060405180830381858888f193505050501580156104db573d6000803e3d6000fd5b505050565b6000819050919050565b6104f3816104e0565b82525050565b600060208201905061050e60008301846104ea565b92915050565b600073ffffffffffffffffffffffffffffffffffffffff82169050919050565b6000819050919050565b600061055961055461054f84610514565b610534565b610514565b9050919050565b600061056b8261053e565b9050919050565b600061057d82610560565b9050919050565b61058d81610572565b82525050565b60006020820190506105a86000830184610584565b92915050565b600080fd5b6105bc816104e0565b81146105c757600080fd5b50565b6000813590506105d9816105b3565b92915050565b6000602082840312156105f5576105f46105ae565b5b6000610603848285016105ca565b91505092915050565b7f4e487b7100000000000000000000000000000000000000000000000000000000600052601260045260246000fd5b7f4e487b7100000000000000000000000000000000000000000000000000000000600052601160045260246000fd5b6000610675826104e0565b9150610680836104e0565b9250826106905761068f61060c565b5b828204905092915050565b60006106a682610514565b9050919050565b6106b68161069b565b82525050565b60006020820190506106d160008301846106ad565b92915050565b6000815190506106e6816105b3565b92915050565b600060208284031215610702576107016105ae565b5b6000610710848285016106d7565b91505092915050565b600082825260208201905092915050565b7f646f65736e6f74206861766520656e6f75676820746f6b656e7320746f20657860008201527f6368616e67650000000000000000000000000000000000000000000000000000602082015250565b6000610786602683610719565b91506107918261072a565b604082019050919050565b600060208201905081810360008301526107b581610779565b9050919050565b60006040820190506107d160008301856106ad565b6107de60208301846104ea565b9392505050565b60008115159050919050565b6107fa816107e5565b811461080557600080fd5b50565b600081519050610817816107f1565b92915050565b600060208284031215610833576108326105ae565b5b600061084184828501610808565b91505092915050565b7f646f65736e6f7420686176652073756666696369656e7420746f6b656e20746f60008201527f2065786368616e67652069742000000000000000000000000000000000000000602082015250565b60006108a6602d83610719565b91506108b18261084a565b604082019050919050565b600060208201905081810360008301526108d581610899565b9050919050565b60006108e7826104e0565b91506108f2836104e0565b9250817fffffffffffffffffffffffffffffffffffffffffffffffffffffffffffffffff048311821515161561092b5761092a61063b565b5b828202905092915050565b7f646f65736e6f74206861766520656e6f75676820657468657200000000000000600082015250565b600061096c601983610719565b915061097782610936565b602082019050919050565b6000602082019050818103600083015261099b8161095f565b9050919050565b60006060820190506109b760008301866106ad565b6109c460208301856106ad565b6109d160408301846104ea565b94935050505056fea26469706673582212207af1f78cc6c6764e6973f4eae51a1d29dfd28419833e29c7e8928cafc024bfbc64736f6c63430008090033",
  "immutableReferences": {},
  "source": "// SPDX-License-Identifier: MIT\npragma solidity >=0.4.22 <0.9.0;\n\nimport \"./SahayogiToken.sol\";\nimport \"@openzeppelin/contracts/utils/math/SafeMath.sol\";\n\ncontract Exchange {\n    using SafeMath for uint256;\n    SahayogiToken public erc20;\n    uint256 public rate = 1 ether;\n\n    constructor(SahayogiToken _erc20) {\n        erc20 = _erc20;\n    }\n\n    //adding fallback function\n\n    //give ether => get token\n    function getTokens() public payable {\n        //calculate num of tokens\n        uint256 tokenAmount = msg.value / rate;\n        //reuire that exchange has enough tokens\n        require(\n            erc20.balanceOf(address(this)) >= tokenAmount,\n            \"doesnot have enough tokens to exchange\"\n        );\n        //transfer tokens to users\n        erc20.transfer(msg.sender, tokenAmount);\n    }\n\n    // amount\n    //give token=> get ether\n    function getEther(uint256 _amount) public {\n        require(\n            erc20.balanceOf(msg.sender) >= _amount,\n            \"doesnot have sufficient token to exchange it \"\n        );\n        //calculate amount of ether\n        uint256 etherAmount = _amount * rate;\n        //must have enough ether\n        require(\n            address(this).balance >= etherAmount,\n            \"doesnot have enough ether\"\n        );\n        erc20.transferFrom(msg.sender, address(this), _amount);\n        //sends ether to person calling this func\n        payable(msg.sender).transfer(etherAmount);\n    }\n}\n",
  "sourcePath": "/home/anisha/Desktop/sahayogi/contracts/Exchange.sol",
  "compiler": {
    "name": "solc",
    "version": "0.8.9+commit.e5eed63a.Emscripten.clang"
  },
  "schemaVersion": "3.4.4",
  "updatedAt": "2022-02-28T14:40:52.447Z",
  "networkType": "ethereum",
  "devdoc": {
    "kind": "dev",
    "methods": {},
    "version": 1
  },
  "userdoc": {
    "kind": "user",
    "methods": {},
    "version": 1
  }
}