{
  "contractName": "FundRaising",
  "abi": [
    {
      "inputs": [
        {
          "internalType": "contract SahayogiToken",
          "name": "_erc20",
          "type": "address"
        },
        {
          "internalType": "address",
          "name": "_admin",
          "type": "address"
        }
      ],
      "stateMutability": "nonpayable",
      "type": "constructor"
    },
    {
      "anonymous": false,
      "inputs": [
        {
          "indexed": false,
          "internalType": "uint256",
          "name": "id",
          "type": "uint256"
        }
      ],
      "name": "Cancel",
      "type": "event"
    },
    {
      "anonymous": false,
      "inputs": [
        {
          "indexed": false,
          "internalType": "uint256",
          "name": "id",
          "type": "uint256"
        },
        {
          "indexed": false,
          "internalType": "uint256",
          "name": "projectId",
          "type": "uint256"
        }
      ],
      "name": "Claim",
      "type": "event"
    },
    {
      "anonymous": false,
      "inputs": [
        {
          "indexed": false,
          "internalType": "uint256",
          "name": "id",
          "type": "uint256"
        },
        {
          "indexed": false,
          "internalType": "uint256",
          "name": "projectId",
          "type": "uint256"
        },
        {
          "indexed": false,
          "internalType": "string",
          "name": "aidAgency",
          "type": "string"
        },
        {
          "indexed": false,
          "internalType": "uint256",
          "name": "goal",
          "type": "uint256"
        },
        {
          "indexed": false,
          "internalType": "uint32",
          "name": "startAt",
          "type": "uint32"
        },
        {
          "indexed": false,
          "internalType": "uint32",
          "name": "endAt",
          "type": "uint32"
        }
      ],
      "name": "Create",
      "type": "event"
    },
    {
      "anonymous": false,
      "inputs": [
        {
          "indexed": true,
          "internalType": "uint256",
          "name": "id",
          "type": "uint256"
        },
        {
          "indexed": true,
          "internalType": "address",
          "name": "donor",
          "type": "address"
        },
        {
          "indexed": false,
          "internalType": "uint256",
          "name": "amount",
          "type": "uint256"
        }
      ],
      "name": "Donate",
      "type": "event"
    },
    {
      "anonymous": false,
      "inputs": [
        {
          "indexed": true,
          "internalType": "uint256",
          "name": "id",
          "type": "uint256"
        },
        {
          "indexed": true,
          "internalType": "address",
          "name": "donor",
          "type": "address"
        },
        {
          "indexed": false,
          "internalType": "uint256",
          "name": "amount",
          "type": "uint256"
        }
      ],
      "name": "Refund",
      "type": "event"
    },
    {
      "anonymous": false,
      "inputs": [
        {
          "indexed": true,
          "internalType": "bytes32",
          "name": "role",
          "type": "bytes32"
        },
        {
          "indexed": true,
          "internalType": "bytes32",
          "name": "previousAdminRole",
          "type": "bytes32"
        },
        {
          "indexed": true,
          "internalType": "bytes32",
          "name": "newAdminRole",
          "type": "bytes32"
        }
      ],
      "name": "RoleAdminChanged",
      "type": "event"
    },
    {
      "anonymous": false,
      "inputs": [
        {
          "indexed": true,
          "internalType": "bytes32",
          "name": "role",
          "type": "bytes32"
        },
        {
          "indexed": true,
          "internalType": "address",
          "name": "account",
          "type": "address"
        },
        {
          "indexed": true,
          "internalType": "address",
          "name": "sender",
          "type": "address"
        }
      ],
      "name": "RoleGranted",
      "type": "event"
    },
    {
      "anonymous": false,
      "inputs": [
        {
          "indexed": true,
          "internalType": "bytes32",
          "name": "role",
          "type": "bytes32"
        },
        {
          "indexed": true,
          "internalType": "address",
          "name": "account",
          "type": "address"
        },
        {
          "indexed": true,
          "internalType": "address",
          "name": "sender",
          "type": "address"
        }
      ],
      "name": "RoleRevoked",
      "type": "event"
    },
    {
      "inputs": [],
      "name": "DEFAULT_ADMIN_ROLE",
      "outputs": [
        {
          "internalType": "bytes32",
          "name": "",
          "type": "bytes32"
        }
      ],
      "stateMutability": "view",
      "type": "function",
      "constant": true
    },
    {
      "inputs": [],
      "name": "count",
      "outputs": [
        {
          "internalType": "uint256",
          "name": "",
          "type": "uint256"
        }
      ],
      "stateMutability": "view",
      "type": "function",
      "constant": true
    },
    {
      "inputs": [
        {
          "internalType": "uint256",
          "name": "",
          "type": "uint256"
        },
        {
          "internalType": "address",
          "name": "",
          "type": "address"
        }
      ],
      "name": "donatedAmount",
      "outputs": [
        {
          "internalType": "uint256",
          "name": "",
          "type": "uint256"
        }
      ],
      "stateMutability": "view",
      "type": "function",
      "constant": true
    },
    {
      "inputs": [],
      "name": "erc20",
      "outputs": [
        {
          "internalType": "contract SahayogiToken",
          "name": "",
          "type": "address"
        }
      ],
      "stateMutability": "view",
      "type": "function",
      "constant": true
    },
    {
      "inputs": [
        {
          "internalType": "bytes32",
          "name": "role",
          "type": "bytes32"
        }
      ],
      "name": "getRoleAdmin",
      "outputs": [
        {
          "internalType": "bytes32",
          "name": "",
          "type": "bytes32"
        }
      ],
      "stateMutability": "view",
      "type": "function",
      "constant": true
    },
    {
      "inputs": [
        {
          "internalType": "bytes32",
          "name": "role",
          "type": "bytes32"
        },
        {
          "internalType": "address",
          "name": "account",
          "type": "address"
        }
      ],
      "name": "grantRole",
      "outputs": [],
      "stateMutability": "nonpayable",
      "type": "function"
    },
    {
      "inputs": [
        {
          "internalType": "bytes32",
          "name": "role",
          "type": "bytes32"
        },
        {
          "internalType": "address",
          "name": "account",
          "type": "address"
        }
      ],
      "name": "hasRole",
      "outputs": [
        {
          "internalType": "bool",
          "name": "",
          "type": "bool"
        }
      ],
      "stateMutability": "view",
      "type": "function",
      "constant": true
    },
    {
      "inputs": [
        {
          "internalType": "uint256",
          "name": "",
          "type": "uint256"
        }
      ],
      "name": "raiseFunds",
      "outputs": [
        {
          "internalType": "uint256",
          "name": "projectId",
          "type": "uint256"
        },
        {
          "internalType": "string",
          "name": "aidAgency",
          "type": "string"
        },
        {
          "internalType": "uint256",
          "name": "goal",
          "type": "uint256"
        },
        {
          "internalType": "uint256",
          "name": "donated",
          "type": "uint256"
        },
        {
          "internalType": "uint32",
          "name": "startAt",
          "type": "uint32"
        },
        {
          "internalType": "uint32",
          "name": "endAt",
          "type": "uint32"
        },
        {
          "internalType": "bool",
          "name": "claimed",
          "type": "bool"
        },
        {
          "internalType": "bool",
          "name": "canceled",
          "type": "bool"
        }
      ],
      "stateMutability": "view",
      "type": "function",
      "constant": true
    },
    {
      "inputs": [
        {
          "internalType": "bytes32",
          "name": "role",
          "type": "bytes32"
        },
        {
          "internalType": "address",
          "name": "account",
          "type": "address"
        }
      ],
      "name": "renounceRole",
      "outputs": [],
      "stateMutability": "nonpayable",
      "type": "function"
    },
    {
      "inputs": [
        {
          "internalType": "bytes32",
          "name": "role",
          "type": "bytes32"
        },
        {
          "internalType": "address",
          "name": "account",
          "type": "address"
        }
      ],
      "name": "revokeRole",
      "outputs": [],
      "stateMutability": "nonpayable",
      "type": "function"
    },
    {
      "inputs": [
        {
          "internalType": "bytes4",
          "name": "interfaceId",
          "type": "bytes4"
        }
      ],
      "name": "supportsInterface",
      "outputs": [
        {
          "internalType": "bool",
          "name": "",
          "type": "bool"
        }
      ],
      "stateMutability": "view",
      "type": "function",
      "constant": true
    },
    {
      "inputs": [
        {
          "internalType": "uint256",
          "name": "_projectId",
          "type": "uint256"
        },
        {
          "internalType": "string",
          "name": "_aidAgency",
          "type": "string"
        },
        {
          "internalType": "uint256",
          "name": "_goal",
          "type": "uint256"
        },
        {
          "internalType": "uint32",
          "name": "_startAt",
          "type": "uint32"
        },
        {
          "internalType": "uint32",
          "name": "_endAt",
          "type": "uint32"
        }
      ],
      "name": "createFundRaise",
      "outputs": [],
      "stateMutability": "nonpayable",
      "type": "function"
    },
    {
      "inputs": [
        {
          "internalType": "uint256",
          "name": "_id",
          "type": "uint256"
        }
      ],
      "name": "getFrInfo",
      "outputs": [
        {
          "internalType": "string",
          "name": "AGENCY_",
          "type": "string"
        },
        {
          "internalType": "uint256",
          "name": "DONATED_",
          "type": "uint256"
        },
        {
          "internalType": "uint256",
          "name": "START_",
          "type": "uint256"
        },
        {
          "internalType": "uint256",
          "name": "END_",
          "type": "uint256"
        },
        {
          "internalType": "uint256",
          "name": "GOAL_",
          "type": "uint256"
        }
      ],
      "stateMutability": "view",
      "type": "function",
      "constant": true
    },
    {
      "inputs": [
        {
          "internalType": "uint256",
          "name": "_id",
          "type": "uint256"
        }
      ],
      "name": "cancel",
      "outputs": [],
      "stateMutability": "nonpayable",
      "type": "function"
    },
    {
      "inputs": [
        {
          "internalType": "uint256",
          "name": "_id",
          "type": "uint256"
        },
        {
          "internalType": "uint256",
          "name": "_amount",
          "type": "uint256"
        }
      ],
      "name": "donate",
      "outputs": [],
      "stateMutability": "nonpayable",
      "type": "function"
    },
    {
      "inputs": [
        {
          "internalType": "uint256",
          "name": "_id",
          "type": "uint256"
        }
      ],
      "name": "refund",
      "outputs": [],
      "stateMutability": "nonpayable",
      "type": "function"
    },
    {
      "inputs": [
        {
          "internalType": "uint256",
          "name": "_id",
          "type": "uint256"
        },
        {
          "internalType": "uint256",
          "name": "_projectId",
          "type": "uint256"
        }
      ],
      "name": "claim",
      "outputs": [],
      "stateMutability": "nonpayable",
      "type": "function"
    }
  ],
  "bytecode": "0x60806040523480156200001157600080fd5b5060405162002e2638038062002e268339818101604052810190620000379190620002bd565b6200004c6000801b826200009560201b60201c565b81600160006101000a81548173ffffffffffffffffffffffffffffffffffffffff021916908373ffffffffffffffffffffffffffffffffffffffff160217905550505062000304565b620000a78282620000ab60201b60201c565b5050565b620000bd82826200019c60201b60201c565b6200019857600160008084815260200190815260200160002060000160008373ffffffffffffffffffffffffffffffffffffffff1673ffffffffffffffffffffffffffffffffffffffff16815260200190815260200160002060006101000a81548160ff0219169083151502179055506200013d6200020660201b60201c565b73ffffffffffffffffffffffffffffffffffffffff168173ffffffffffffffffffffffffffffffffffffffff16837f2f8788117e7eff1d82e926ec794901d17c78024a50270940304540a733656f0d60405160405180910390a45b5050565b600080600084815260200190815260200160002060000160008373ffffffffffffffffffffffffffffffffffffffff1673ffffffffffffffffffffffffffffffffffffffff16815260200190815260200160002060009054906101000a900460ff16905092915050565b600033905090565b600080fd5b600073ffffffffffffffffffffffffffffffffffffffff82169050919050565b6000620002408262000213565b9050919050565b6000620002548262000233565b9050919050565b620002668162000247565b81146200027257600080fd5b50565b60008151905062000286816200025b565b92915050565b620002978162000233565b8114620002a357600080fd5b50565b600081519050620002b7816200028c565b92915050565b60008060408385031215620002d757620002d66200020e565b5b6000620002e78582860162000275565b9250506020620002fa85828601620002a6565b9150509250929050565b612b1280620003146000396000f3fe608060405234801561001057600080fd5b506004361061010b5760003560e01c806336568abe116100a25780639f0372e2116100715780639f0372e2146102bb578063a217fddf146102ef578063c34902631461030d578063d547741f14610329578063eaf65e08146103455761010b565b806336568abe1461023557806340e58ee514610251578063785e9e861461026d57806391d148541461028b5761010b565b8063248a9ca3116100de578063248a9ca314610196578063278ecde1146101c65780632d2956e6146101e25780632f2ff15d146102195761010b565b806301ffc9a71461011057806306661abd146101405780630cdd53f61461015e5780631891e47e1461017a575b600080fd5b61012a60048036038101906101259190611aa8565b610375565b6040516101379190611af0565b60405180910390f35b6101486103ef565b6040516101559190611b24565b60405180910390f35b61017860048036038101906101739190611b6b565b6103f5565b005b610194600480360381019061018f9190611c4c565b61064e565b005b6101b060048036038101906101ab9190611d1c565b61090b565b6040516101bd9190611d58565b60405180910390f35b6101e060048036038101906101db9190611d73565b61092a565b005b6101fc60048036038101906101f79190611d73565b610b96565b604051610210989796959493929190611e48565b60405180910390f35b610233600480360381019061022e9190611f2b565b610ca0565b005b61024f600480360381019061024a9190611f2b565b610cc9565b005b61026b60048036038101906102669190611d73565b610d4c565b005b610275611008565b6040516102829190611fca565b60405180910390f35b6102a560048036038101906102a09190611f2b565b61102e565b6040516102b29190611af0565b60405180910390f35b6102d560048036038101906102d09190611d73565b611098565b6040516102e6959493929190611fe5565b60405180910390f35b6102f76111e3565b6040516103049190611d58565b60405180910390f35b61032760048036038101906103229190611b6b565b6111ea565b005b610343600480360381019061033e9190611f2b565b611409565b005b61035f600480360381019061035a919061203f565b611432565b60405161036c9190611b24565b60405180910390f35b60007f7965db0b000000000000000000000000000000000000000000000000000000007bffffffffffffffffffffffffffffffffffffffffffffffffffffffff1916827bffffffffffffffffffffffffffffffffffffffffffffffffffffffff191614806103e857506103e782611457565b5b9050919050565b60025481565b60006003600084815260200190815260200160002090508060040160009054906101000a900463ffffffff1663ffffffff16421015610469576040517f08c379a0000000000000000000000000000000000000000000000000000000008152600401610460906120f1565b60405180910390fd5b8060040160049054906101000a900463ffffffff1663ffffffff164211156104c6576040517f08c379a00000000000000000000000000000000000000000000000000000000081526004016104bd9061215d565b60405180910390fd5b818160030160008282546104da91906121ac565b92505081905550816005600085815260200190815260200160002060003373ffffffffffffffffffffffffffffffffffffffff1673ffffffffffffffffffffffffffffffffffffffff168152602001908152602001600020600082825461054191906121ac565b92505081905550600160009054906101000a900473ffffffffffffffffffffffffffffffffffffffff1673ffffffffffffffffffffffffffffffffffffffff166323b872dd3330856040518463ffffffff1660e01b81526004016105a793929190612211565b602060405180830381600087803b1580156105c157600080fd5b505af11580156105d5573d6000803e3d6000fd5b505050506040513d601f19601f820116820180604052508101906105f99190612274565b503373ffffffffffffffffffffffffffffffffffffffff16837f48def02da8c59b50861e25bab759a8a0c0de6fab6448ef85f32ce59397947d80846040516106419190611b24565b60405180910390a3505050565b61065b6000801b3361102e565b61069a576040517f08c379a0000000000000000000000000000000000000000000000000000000008152600401610691906122ed565b60405180910390fd5b428263ffffffff1610156106e3576040517f08c379a00000000000000000000000000000000000000000000000000000000081526004016106da90612359565b60405180910390fd5b8163ffffffff168163ffffffff161015610732576040517f08c379a0000000000000000000000000000000000000000000000000000000008152600401610729906123eb565b60405180910390fd5b60016002600082825461074591906121ac565b9250508190555060405180610100016040528087815260200186868080601f016020809104026020016040519081016040528093929190818152602001838380828437600081840152601f19601f820116905080830192505050505050508152602001848152602001600081526020018363ffffffff1681526020018263ffffffff16815260200160001515815260200160001515815250600360006002548152602001908152602001600020600082015181600001556020820151816001019080519060200190610818929190611963565b50604082015181600201556060820151816003015560808201518160040160006101000a81548163ffffffff021916908363ffffffff16021790555060a08201518160040160046101000a81548163ffffffff021916908363ffffffff16021790555060c08201518160040160086101000a81548160ff02191690831515021790555060e08201518160040160096101000a81548160ff0219169083151502179055509050507f46f64c067cc9225574aaaba82206236e79cb30e086ff675a6693f7f329045c906002548787878787876040516108fb9796959493929190612447565b60405180910390a1505050505050565b6000806000838152602001908152602001600020600101549050919050565b60006003600083815260200190815260200160002090508060040160049054906101000a900463ffffffff1663ffffffff16421161099d576040517f08c379a0000000000000000000000000000000000000000000000000000000008152600401610994906124fd565b60405180910390fd5b80600201548160030154106109e7576040517f08c379a00000000000000000000000000000000000000000000000000000000081526004016109de9061258f565b60405180910390fd5b60006005600084815260200190815260200160002060003373ffffffffffffffffffffffffffffffffffffffff1673ffffffffffffffffffffffffffffffffffffffff16815260200190815260200160002054905060006005600085815260200190815260200160002060003373ffffffffffffffffffffffffffffffffffffffff1673ffffffffffffffffffffffffffffffffffffffff16815260200190815260200160002081905550600160009054906101000a900473ffffffffffffffffffffffffffffffffffffffff1673ffffffffffffffffffffffffffffffffffffffff1663a9059cbb33836040518363ffffffff1660e01b8152600401610aef9291906125af565b602060405180830381600087803b158015610b0957600080fd5b505af1158015610b1d573d6000803e3d6000fd5b505050506040513d601f19601f82011682018060405250810190610b419190612274565b503373ffffffffffffffffffffffffffffffffffffffff16837f21e12a7cad0da5928167e1084ea4d5fdf8d9af66657a2543a9ac76a0ca08147783604051610b899190611b24565b60405180910390a3505050565b6003602052806000526040600020600091509050806000015490806001018054610bbf90612607565b80601f0160208091040260200160405190810160405280929190818152602001828054610beb90612607565b8015610c385780601f10610c0d57610100808354040283529160200191610c38565b820191906000526020600020905b815481529060010190602001808311610c1b57829003601f168201915b5050505050908060020154908060030154908060040160009054906101000a900463ffffffff16908060040160049054906101000a900463ffffffff16908060040160089054906101000a900460ff16908060040160099054906101000a900460ff16905088565b610ca98261090b565b610cba81610cb56114c1565b6114c9565b610cc48383611566565b505050565b610cd16114c1565b73ffffffffffffffffffffffffffffffffffffffff168173ffffffffffffffffffffffffffffffffffffffff1614610d3e576040517f08c379a0000000000000000000000000000000000000000000000000000000008152600401610d35906126ab565b60405180910390fd5b610d488282611646565b5050565b610d596000801b3361102e565b610d98576040517f08c379a0000000000000000000000000000000000000000000000000000000008152600401610d8f906122ed565b60405180910390fd5b6000600360008381526020019081526020016000206040518061010001604052908160008201548152602001600182018054610dd390612607565b80601f0160208091040260200160405190810160405280929190818152602001828054610dff90612607565b8015610e4c5780601f10610e2157610100808354040283529160200191610e4c565b820191906000526020600020905b815481529060010190602001808311610e2f57829003601f168201915b5050505050815260200160028201548152602001600382015481526020016004820160009054906101000a900463ffffffff1663ffffffff1663ffffffff1681526020016004820160049054906101000a900463ffffffff1663ffffffff1663ffffffff1681526020016004820160089054906101000a900460ff161515151581526020016004820160099054906101000a900460ff1615151515815250509050806080015163ffffffff164210610f39576040517f08c379a0000000000000000000000000000000000000000000000000000000008152600401610f309061273d565b60405180910390fd5b60036000838152602001908152602001600020600080820160009055600182016000610f6591906119e9565b600282016000905560038201600090556004820160006101000a81549063ffffffff02191690556004820160046101000a81549063ffffffff02191690556004820160086101000a81549060ff02191690556004820160096101000a81549060ff021916905550507f8bf30e7ff26833413be5f69e1d373744864d600b664204b4a2f9844a8eedb9ed82604051610ffc9190611b24565b60405180910390a15050565b600160009054906101000a900473ffffffffffffffffffffffffffffffffffffffff1681565b600080600084815260200190815260200160002060000160008373ffffffffffffffffffffffffffffffffffffffff1673ffffffffffffffffffffffffffffffffffffffff16815260200190815260200160002060009054906101000a900460ff16905092915050565b60606000806000806003600087815260200190815260200160002060010160036000888152602001908152602001600020600301546003600089815260200190815260200160002060040160009054906101000a900463ffffffff16600360008a815260200190815260200160002060040160049054906101000a900463ffffffff16600360008b81526020019081526020016000206002015484805461113e90612607565b80601f016020809104026020016040519081016040528092919081815260200182805461116a90612607565b80156111b75780601f1061118c576101008083540402835291602001916111b7565b820191906000526020600020905b81548152906001019060200180831161119a57829003601f168201915b505050505094508263ffffffff1692508163ffffffff1691509450945094509450945091939590929450565b6000801b81565b60006003600084815260200190815260200160002090508060040160049054906101000a900463ffffffff1663ffffffff16421161125d576040517f08c379a0000000000000000000000000000000000000000000000000000000008152600401611254906124fd565b60405180910390fd5b8060020154816003015410156112a8576040517f08c379a000000000000000000000000000000000000000000000000000000000815260040161129f906127a9565b60405180910390fd5b8060040160089054906101000a900460ff16156112fa576040517f08c379a00000000000000000000000000000000000000000000000000000000081526004016112f190612815565b60405180910390fd5b60018160040160086101000a81548160ff021916908315150217905550600160009054906101000a900473ffffffffffffffffffffffffffffffffffffffff1673ffffffffffffffffffffffffffffffffffffffff1663a9059cbb3383600301546040518363ffffffff1660e01b81526004016113789291906125af565b602060405180830381600087803b15801561139257600080fd5b505af11580156113a6573d6000803e3d6000fd5b505050506040513d601f19601f820116820180604052508101906113ca9190612274565b507f022e3d29644ead4083349ca84d24bcac368b2461819b70f5921fea15de4dec4d83836040516113fc929190612835565b60405180910390a1505050565b6114128261090b565b6114238161141e6114c1565b6114c9565b61142d8383611646565b505050565b6005602052816000526040600020602052806000526040600020600091509150505481565b60007f01ffc9a7000000000000000000000000000000000000000000000000000000007bffffffffffffffffffffffffffffffffffffffffffffffffffffffff1916827bffffffffffffffffffffffffffffffffffffffffffffffffffffffff1916149050919050565b600033905090565b6114d3828261102e565b611562576114f88173ffffffffffffffffffffffffffffffffffffffff166014611727565b6115068360001c6020611727565b604051602001611517929190612932565b6040516020818303038152906040526040517f08c379a0000000000000000000000000000000000000000000000000000000008152600401611559919061296c565b60405180910390fd5b5050565b611570828261102e565b61164257600160008084815260200190815260200160002060000160008373ffffffffffffffffffffffffffffffffffffffff1673ffffffffffffffffffffffffffffffffffffffff16815260200190815260200160002060006101000a81548160ff0219169083151502179055506115e76114c1565b73ffffffffffffffffffffffffffffffffffffffff168173ffffffffffffffffffffffffffffffffffffffff16837f2f8788117e7eff1d82e926ec794901d17c78024a50270940304540a733656f0d60405160405180910390a45b5050565b611650828261102e565b1561172357600080600084815260200190815260200160002060000160008373ffffffffffffffffffffffffffffffffffffffff1673ffffffffffffffffffffffffffffffffffffffff16815260200190815260200160002060006101000a81548160ff0219169083151502179055506116c86114c1565b73ffffffffffffffffffffffffffffffffffffffff168173ffffffffffffffffffffffffffffffffffffffff16837ff6391f5c32d9c69d2a47ea670b442974b53935d1edc7fd64eb21e047a839171b60405160405180910390a45b5050565b60606000600283600261173a919061298e565b61174491906121ac565b67ffffffffffffffff81111561175d5761175c6129e8565b5b6040519080825280601f01601f19166020018201604052801561178f5781602001600182028036833780820191505090505b5090507f3000000000000000000000000000000000000000000000000000000000000000816000815181106117c7576117c6612a17565b5b60200101907effffffffffffffffffffffffffffffffffffffffffffffffffffffffffffff1916908160001a9053507f78000000000000000000000000000000000000000000000000000000000000008160018151811061182b5761182a612a17565b5b60200101907effffffffffffffffffffffffffffffffffffffffffffffffffffffffffffff1916908160001a9053506000600184600261186b919061298e565b61187591906121ac565b90505b6001811115611915577f3031323334353637383961626364656600000000000000000000000000000000600f8616601081106118b7576118b6612a17565b5b1a60f81b8282815181106118ce576118cd612a17565b5b60200101907effffffffffffffffffffffffffffffffffffffffffffffffffffffffffffff1916908160001a905350600485901c94508061190e90612a46565b9050611878565b5060008414611959576040517f08c379a000000000000000000000000000000000000000000000000000000000815260040161195090612abc565b60405180910390fd5b8091505092915050565b82805461196f90612607565b90600052602060002090601f01602090048101928261199157600085556119d8565b82601f106119aa57805160ff19168380011785556119d8565b828001600101855582156119d8579182015b828111156119d75782518255916020019190600101906119bc565b5b5090506119e59190611a29565b5090565b5080546119f590612607565b6000825580601f10611a075750611a26565b601f016020900490600052602060002090810190611a259190611a29565b5b50565b5b80821115611a42576000816000905550600101611a2a565b5090565b600080fd5b600080fd5b60007fffffffff0000000000000000000000000000000000000000000000000000000082169050919050565b611a8581611a50565b8114611a9057600080fd5b50565b600081359050611aa281611a7c565b92915050565b600060208284031215611abe57611abd611a46565b5b6000611acc84828501611a93565b91505092915050565b60008115159050919050565b611aea81611ad5565b82525050565b6000602082019050611b056000830184611ae1565b92915050565b6000819050919050565b611b1e81611b0b565b82525050565b6000602082019050611b396000830184611b15565b92915050565b611b4881611b0b565b8114611b5357600080fd5b50565b600081359050611b6581611b3f565b92915050565b60008060408385031215611b8257611b81611a46565b5b6000611b9085828601611b56565b9250506020611ba185828601611b56565b9150509250929050565b600080fd5b600080fd5b600080fd5b60008083601f840112611bd057611bcf611bab565b5b8235905067ffffffffffffffff811115611bed57611bec611bb0565b5b602083019150836001820283011115611c0957611c08611bb5565b5b9250929050565b600063ffffffff82169050919050565b611c2981611c10565b8114611c3457600080fd5b50565b600081359050611c4681611c20565b92915050565b60008060008060008060a08789031215611c6957611c68611a46565b5b6000611c7789828a01611b56565b965050602087013567ffffffffffffffff811115611c9857611c97611a4b565b5b611ca489828a01611bba565b95509550506040611cb789828a01611b56565b9350506060611cc889828a01611c37565b9250506080611cd989828a01611c37565b9150509295509295509295565b6000819050919050565b611cf981611ce6565b8114611d0457600080fd5b50565b600081359050611d1681611cf0565b92915050565b600060208284031215611d3257611d31611a46565b5b6000611d4084828501611d07565b91505092915050565b611d5281611ce6565b82525050565b6000602082019050611d6d6000830184611d49565b92915050565b600060208284031215611d8957611d88611a46565b5b6000611d9784828501611b56565b91505092915050565b600081519050919050565b600082825260208201905092915050565b60005b83811015611dda578082015181840152602081019050611dbf565b83811115611de9576000848401525b50505050565b6000601f19601f8301169050919050565b6000611e0b82611da0565b611e158185611dab565b9350611e25818560208601611dbc565b611e2e81611def565b840191505092915050565b611e4281611c10565b82525050565b600061010082019050611e5e600083018b611b15565b8181036020830152611e70818a611e00565b9050611e7f6040830189611b15565b611e8c6060830188611b15565b611e996080830187611e39565b611ea660a0830186611e39565b611eb360c0830185611ae1565b611ec060e0830184611ae1565b9998505050505050505050565b600073ffffffffffffffffffffffffffffffffffffffff82169050919050565b6000611ef882611ecd565b9050919050565b611f0881611eed565b8114611f1357600080fd5b50565b600081359050611f2581611eff565b92915050565b60008060408385031215611f4257611f41611a46565b5b6000611f5085828601611d07565b9250506020611f6185828601611f16565b9150509250929050565b6000819050919050565b6000611f90611f8b611f8684611ecd565b611f6b565b611ecd565b9050919050565b6000611fa282611f75565b9050919050565b6000611fb482611f97565b9050919050565b611fc481611fa9565b82525050565b6000602082019050611fdf6000830184611fbb565b92915050565b600060a0820190508181036000830152611fff8188611e00565b905061200e6020830187611b15565b61201b6040830186611b15565b6120286060830185611b15565b6120356080830184611b15565b9695505050505050565b6000806040838503121561205657612055611a46565b5b600061206485828601611b56565b925050602061207585828601611f16565b9150509250929050565b7f53414841594f47493a2046756e642072616973696e67206e6f7420737461727460008201527f6564207965740000000000000000000000000000000000000000000000000000602082015250565b60006120db602683611dab565b91506120e68261207f565b604082019050919050565b6000602082019050818103600083015261210a816120ce565b9050919050565b7f53414841594f47493a2046756e642072616973696e672066696e697368656400600082015250565b6000612147601f83611dab565b915061215282612111565b602082019050919050565b600060208201905081810360008301526121768161213a565b9050919050565b7f4e487b7100000000000000000000000000000000000000000000000000000000600052601160045260246000fd5b60006121b782611b0b565b91506121c283611b0b565b9250827fffffffffffffffffffffffffffffffffffffffffffffffffffffffffffffffff038211156121f7576121f661217d565b5b828201905092915050565b61220b81611eed565b82525050565b60006060820190506122266000830186612202565b6122336020830185612202565b6122406040830184611b15565b949350505050565b61225181611ad5565b811461225c57600080fd5b50565b60008151905061226e81612248565b92915050565b60006020828403121561228a57612289611a46565b5b60006122988482850161225f565b91505092915050565b7f53414841594f47493a4d5553542042452041444d494e00000000000000000000600082015250565b60006122d7601683611dab565b91506122e2826122a1565b602082019050919050565b60006020820190508181036000830152612306816122ca565b9050919050565b7f53414841594f47493a207374617274696e672074696d65206973203c206e6f77600082015250565b6000612343602083611dab565b915061234e8261230d565b602082019050919050565b6000602082019050818103600083015261237281612336565b9050919050565b7f53414841594f47493a20656e64696e672074696d6520203c207374617274696e60008201527f672074696d652000000000000000000000000000000000000000000000000000602082015250565b60006123d5602783611dab565b91506123e082612379565b604082019050919050565b60006020820190508181036000830152612404816123c8565b9050919050565b82818337600083830152505050565b60006124268385611dab565b935061243383858461240b565b61243c83611def565b840190509392505050565b600060c08201905061245c600083018a611b15565b6124696020830189611b15565b818103604083015261247c81878961241a565b905061248b6060830186611b15565b6124986080830185611e39565b6124a560a0830184611e39565b98975050505050505050565b7f53414841594f47493a2046756e642072616973696e67206e6f7420656e646564600082015250565b60006124e7602083611dab565b91506124f2826124b1565b602082019050919050565b60006020820190508181036000830152612516816124da565b9050919050565b7f53414841594f47493a20646f6e6174656420616d6f756e74206973206c65737360008201527f207468616e20676f616c00000000000000000000000000000000000000000000602082015250565b6000612579602a83611dab565b91506125848261251d565b604082019050919050565b600060208201905081810360008301526125a88161256c565b9050919050565b60006040820190506125c46000830185612202565b6125d16020830184611b15565b9392505050565b7f4e487b7100000000000000000000000000000000000000000000000000000000600052602260045260246000fd5b6000600282049050600182168061261f57607f821691505b60208210811415612633576126326125d8565b5b50919050565b7f416363657373436f6e74726f6c3a2063616e206f6e6c792072656e6f756e636560008201527f20726f6c657320666f722073656c660000000000000000000000000000000000602082015250565b6000612695602f83611dab565b91506126a082612639565b604082019050919050565b600060208201905081810360008301526126c481612688565b9050919050565b7f53414841594f47493a2046756e642072616973696e6720616c7265616479207360008201527f7461727465642063616e742062652063616e63656c6564000000000000000000602082015250565b6000612727603783611dab565b9150612732826126cb565b604082019050919050565b600060208201905081810360008301526127568161271a565b9050919050565b7f53414841594f47493a206861736e6f74207265616368656420676f616c000000600082015250565b6000612793601d83611dab565b915061279e8261275d565b602082019050919050565b600060208201905081810360008301526127c281612786565b9050919050565b7f53414841594f47493a20416c726561647920636c61696d656400000000000000600082015250565b60006127ff601983611dab565b915061280a826127c9565b602082019050919050565b6000602082019050818103600083015261282e816127f2565b9050919050565b600060408201905061284a6000830185611b15565b6128576020830184611b15565b9392505050565b600081905092915050565b7f416363657373436f6e74726f6c3a206163636f756e7420000000000000000000600082015250565b600061289f60178361285e565b91506128aa82612869565b601782019050919050565b60006128c082611da0565b6128ca818561285e565b93506128da818560208601611dbc565b80840191505092915050565b7f206973206d697373696e6720726f6c6520000000000000000000000000000000600082015250565b600061291c60118361285e565b9150612927826128e6565b601182019050919050565b600061293d82612892565b915061294982856128b5565b91506129548261290f565b915061296082846128b5565b91508190509392505050565b600060208201905081810360008301526129868184611e00565b905092915050565b600061299982611b0b565b91506129a483611b0b565b9250817fffffffffffffffffffffffffffffffffffffffffffffffffffffffffffffffff04831182151516156129dd576129dc61217d565b5b828202905092915050565b7f4e487b7100000000000000000000000000000000000000000000000000000000600052604160045260246000fd5b7f4e487b7100000000000000000000000000000000000000000000000000000000600052603260045260246000fd5b6000612a5182611b0b565b91506000821415612a6557612a6461217d565b5b600182039050919050565b7f537472696e67733a20686578206c656e67746820696e73756666696369656e74600082015250565b6000612aa6602083611dab565b9150612ab182612a70565b602082019050919050565b60006020820190508181036000830152612ad581612a99565b905091905056fea2646970667358221220b9862f75eba8d0eaca9813de3559089d0bf2e8ec1ff20df3772dbac416e96a5864736f6c63430008090033",
  "immutableReferences": {},
  "source": "// SPDX-License-Identifier: MIT\npragma solidity >=0.4.22 <0.9.0;\n\nimport \"./SahayogiToken.sol\";\nimport \"@openzeppelin/contracts/access/AccessControl.sol\";\nimport \"@openzeppelin/contracts/utils/math/SafeMath.sol\";\n\n\ncontract FundRaising is AccessControl {\n \n    using SafeMath for uint256;\n    event Claim(\n        uint256 id,\n        uint256 projectId\n    );\n    event Create(\n        uint256 id,\n        uint256 projectId,\n        string aidAgency,\n        uint256 goal,\n        uint32 startAt,\n        uint32 endAt\n    );\n    event Cancel(uint256 id);\n    event Donate(\n        uint256 indexed id,\n        address indexed donor,\n        uint256 amount\n    );\n    event Refund(\n        uint256 indexed id,\n        address indexed donor,\n        uint256 amount\n    );\n    struct RaiseFund {\n        uint256 projectId;\n        string aidAgency;\n        //total tokens to be collected\n        uint256 goal;\n        uint256 donated;\n        uint32 startAt;\n        uint32 endAt;\n        bool claimed;\n        bool canceled;\n    }\n\n    //state\n    SahayogiToken public erc20;\n    //FRid=> RaiseFund\n    uint256 public count;\n    mapping(uint256 => RaiseFund) public raiseFunds;\n    string[] raiseFundLists;\n    // RFid=>userAdd=>amount\n    mapping(uint256 => mapping(address => uint256)) public donatedAmount;\n\n    constructor(SahayogiToken _erc20,address _admin) {\n        _setupRole(DEFAULT_ADMIN_ROLE, _admin);\n        erc20 = _erc20;\n       \n    }\n    modifier OnlyAdmin() {\n        require(hasRole(DEFAULT_ADMIN_ROLE, msg.sender), \"SAHAYOGI:MUST BE ADMIN\");\n        _;\n    }\n\n    function createFundRaise(\n        uint256 _projectId,\n        string calldata _aidAgency,\n        uint256 _goal,\n        uint32 _startAt,\n        uint32 _endAt\n    ) public OnlyAdmin {\n        require(_startAt >= block.timestamp, \"SAHAYOGI: starting time is < now\");\n        require(_endAt >= _startAt, \"SAHAYOGI: ending time  < starting time \");\n        count +=1;\n       \n        raiseFunds[count] = RaiseFund({\n            projectId:_projectId,\n            aidAgency: _aidAgency, \n            goal: _goal,\n            donated: 0,\n            startAt: _startAt,\n            endAt: _endAt,\n            claimed: false,\n            canceled: false\n        });\n        emit Create(count,_projectId,_aidAgency, _goal, _startAt, _endAt);\n       \n    }\n    function getFrInfo(uint256 _id) public view returns(string memory AGENCY_,uint256 DONATED_,uint256 START_,uint256 END_,uint256 GOAL_){\n    return(raiseFunds[_id].aidAgency,raiseFunds[_id].donated, raiseFunds[_id].startAt,raiseFunds[_id].endAt,raiseFunds[_id].goal);\n    }\n\n    function cancel(uint256 _id) public OnlyAdmin {\n        RaiseFund memory raiseFund = raiseFunds[_id];\n        require(\n            block.timestamp < raiseFund.startAt,\n            \"SAHAYOGI: Fund raising already started cant be canceled\"\n        );\n        delete raiseFunds[_id];\n        emit Cancel(_id);\n    }\n  \n\n    function donate(uint256 _id, uint256 _amount) external {\n        RaiseFund storage raiseFund = raiseFunds[_id];\n        require(block.timestamp >= raiseFund.startAt, \"SAHAYOGI: Fund raising not started yet\");\n        require(block.timestamp <= raiseFund.endAt, \"SAHAYOGI: Fund raising finished\");\n\n        raiseFund.donated += _amount;\n        donatedAmount[_id][msg.sender] += _amount;\n        erc20.transferFrom(msg.sender, address(this), _amount);\n\n        emit Donate(_id, msg.sender, _amount);\n    }\n    function refund(uint _id) external{\n        RaiseFund storage raiseFund = raiseFunds[_id];\n        require(block.timestamp > raiseFund.endAt,\"SAHAYOGI: Fund raising not ended\");\n        require(raiseFund.donated < raiseFund.goal,\"SAHAYOGI: donated amount is less than goal\");\n        uint256 balance = donatedAmount[_id][msg.sender];\n        donatedAmount[_id][msg.sender]=0;\n        erc20.transfer(msg.sender,balance);\n        emit Refund(_id,msg.sender,balance);\n\n    }\n    \n    function claim(uint256 _id,uint256 _projectId) external {\n        RaiseFund storage raiseFund = raiseFunds[_id];\n        require(block.timestamp > raiseFund.endAt,\"SAHAYOGI: Fund raising not ended\");\n        require(raiseFund.donated >= raiseFund.goal,\"SAHAYOGI: hasnot reached goal\");\n        require(!raiseFund.claimed,\"SAHAYOGI: Already claimed\");\n        raiseFund.claimed = true;\n        erc20.transfer(msg.sender,raiseFund.donated);\n\n        emit Claim(_id,_projectId);\n    }\n}\n\n",
  "sourcePath": "/home/anisha/Desktop/sahayogi/contracts/FundRaising.sol",
  "compiler": {
    "name": "solc",
    "version": "0.8.9+commit.e5eed63a.Emscripten.clang"
  },
  "schemaVersion": "3.4.4",
  "updatedAt": "2022-04-13T07:21:08.149Z",
  "networkType": "ethereum",
  "devdoc": {
    "kind": "dev",
    "methods": {
      "getRoleAdmin(bytes32)": {
        "details": "Returns the admin role that controls `role`. See {grantRole} and {revokeRole}. To change a role's admin, use {_setRoleAdmin}."
      },
      "grantRole(bytes32,address)": {
        "details": "Grants `role` to `account`. If `account` had not been already granted `role`, emits a {RoleGranted} event. Requirements: - the caller must have ``role``'s admin role."
      },
      "hasRole(bytes32,address)": {
        "details": "Returns `true` if `account` has been granted `role`."
      },
      "renounceRole(bytes32,address)": {
        "details": "Revokes `role` from the calling account. Roles are often managed via {grantRole} and {revokeRole}: this function's purpose is to provide a mechanism for accounts to lose their privileges if they are compromised (such as when a trusted device is misplaced). If the calling account had been granted `role`, emits a {RoleRevoked} event. Requirements: - the caller must be `account`."
      },
      "revokeRole(bytes32,address)": {
        "details": "Revokes `role` from `account`. If `account` had been granted `role`, emits a {RoleRevoked} event. Requirements: - the caller must have ``role``'s admin role."
      },
      "supportsInterface(bytes4)": {
        "details": "See {IERC165-supportsInterface}."
      }
    },
    "version": 1
  },
  "userdoc": {
    "kind": "user",
    "methods": {},
    "version": 1
  }
}