{
  "contractName": "FundRaising",
  "abi": [
    {
      "inputs": [
        {
          "internalType": "contract SahayogiToken",
          "name": "_erc20",
          "type": "address"
        },
        {
          "internalType": "address",
          "name": "_admin",
          "type": "address"
        }
      ],
      "stateMutability": "nonpayable",
      "type": "constructor"
    },
    {
      "anonymous": false,
      "inputs": [
        {
          "indexed": false,
          "internalType": "uint256",
          "name": "id",
          "type": "uint256"
        }
      ],
      "name": "Cancel",
      "type": "event"
    },
    {
      "anonymous": false,
      "inputs": [
        {
          "indexed": false,
          "internalType": "uint256",
          "name": "id",
          "type": "uint256"
        },
        {
          "indexed": false,
          "internalType": "uint256",
          "name": "projectId",
          "type": "uint256"
        }
      ],
      "name": "Claim",
      "type": "event"
    },
    {
      "anonymous": false,
      "inputs": [
        {
          "indexed": false,
          "internalType": "uint256",
          "name": "id",
          "type": "uint256"
        },
        {
          "indexed": false,
          "internalType": "uint256",
          "name": "projectId",
          "type": "uint256"
        },
        {
          "indexed": false,
          "internalType": "string",
          "name": "aidAgency",
          "type": "string"
        },
        {
          "indexed": false,
          "internalType": "uint256",
          "name": "goal",
          "type": "uint256"
        },
        {
          "indexed": false,
          "internalType": "uint32",
          "name": "startAt",
          "type": "uint32"
        },
        {
          "indexed": false,
          "internalType": "uint32",
          "name": "endAt",
          "type": "uint32"
        }
      ],
      "name": "Create",
      "type": "event"
    },
    {
      "anonymous": false,
      "inputs": [
        {
          "indexed": true,
          "internalType": "uint256",
          "name": "id",
          "type": "uint256"
        },
        {
          "indexed": true,
          "internalType": "address",
          "name": "caller",
          "type": "address"
        },
        {
          "indexed": false,
          "internalType": "uint256",
          "name": "amount",
          "type": "uint256"
        }
      ],
      "name": "Donate",
      "type": "event"
    },
    {
      "anonymous": false,
      "inputs": [
        {
          "indexed": true,
          "internalType": "bytes32",
          "name": "role",
          "type": "bytes32"
        },
        {
          "indexed": true,
          "internalType": "bytes32",
          "name": "previousAdminRole",
          "type": "bytes32"
        },
        {
          "indexed": true,
          "internalType": "bytes32",
          "name": "newAdminRole",
          "type": "bytes32"
        }
      ],
      "name": "RoleAdminChanged",
      "type": "event"
    },
    {
      "anonymous": false,
      "inputs": [
        {
          "indexed": true,
          "internalType": "bytes32",
          "name": "role",
          "type": "bytes32"
        },
        {
          "indexed": true,
          "internalType": "address",
          "name": "account",
          "type": "address"
        },
        {
          "indexed": true,
          "internalType": "address",
          "name": "sender",
          "type": "address"
        }
      ],
      "name": "RoleGranted",
      "type": "event"
    },
    {
      "anonymous": false,
      "inputs": [
        {
          "indexed": true,
          "internalType": "bytes32",
          "name": "role",
          "type": "bytes32"
        },
        {
          "indexed": true,
          "internalType": "address",
          "name": "account",
          "type": "address"
        },
        {
          "indexed": true,
          "internalType": "address",
          "name": "sender",
          "type": "address"
        }
      ],
      "name": "RoleRevoked",
      "type": "event"
    },
    {
      "inputs": [],
      "name": "DEFAULT_ADMIN_ROLE",
      "outputs": [
        {
          "internalType": "bytes32",
          "name": "",
          "type": "bytes32"
        }
      ],
      "stateMutability": "view",
      "type": "function",
      "constant": true
    },
    {
      "inputs": [],
      "name": "count",
      "outputs": [
        {
          "internalType": "uint256",
          "name": "",
          "type": "uint256"
        }
      ],
      "stateMutability": "view",
      "type": "function",
      "constant": true
    },
    {
      "inputs": [
        {
          "internalType": "uint256",
          "name": "",
          "type": "uint256"
        },
        {
          "internalType": "address",
          "name": "",
          "type": "address"
        }
      ],
      "name": "donatedAmount",
      "outputs": [
        {
          "internalType": "uint256",
          "name": "",
          "type": "uint256"
        }
      ],
      "stateMutability": "view",
      "type": "function",
      "constant": true
    },
    {
      "inputs": [],
      "name": "erc20",
      "outputs": [
        {
          "internalType": "contract SahayogiToken",
          "name": "",
          "type": "address"
        }
      ],
      "stateMutability": "view",
      "type": "function",
      "constant": true
    },
    {
      "inputs": [
        {
          "internalType": "bytes32",
          "name": "role",
          "type": "bytes32"
        }
      ],
      "name": "getRoleAdmin",
      "outputs": [
        {
          "internalType": "bytes32",
          "name": "",
          "type": "bytes32"
        }
      ],
      "stateMutability": "view",
      "type": "function",
      "constant": true
    },
    {
      "inputs": [
        {
          "internalType": "bytes32",
          "name": "role",
          "type": "bytes32"
        },
        {
          "internalType": "address",
          "name": "account",
          "type": "address"
        }
      ],
      "name": "grantRole",
      "outputs": [],
      "stateMutability": "nonpayable",
      "type": "function"
    },
    {
      "inputs": [
        {
          "internalType": "bytes32",
          "name": "role",
          "type": "bytes32"
        },
        {
          "internalType": "address",
          "name": "account",
          "type": "address"
        }
      ],
      "name": "hasRole",
      "outputs": [
        {
          "internalType": "bool",
          "name": "",
          "type": "bool"
        }
      ],
      "stateMutability": "view",
      "type": "function",
      "constant": true
    },
    {
      "inputs": [
        {
          "internalType": "uint256",
          "name": "",
          "type": "uint256"
        }
      ],
      "name": "raiseFunds",
      "outputs": [
        {
          "internalType": "uint256",
          "name": "projectId",
          "type": "uint256"
        },
        {
          "internalType": "string",
          "name": "aidAgency",
          "type": "string"
        },
        {
          "internalType": "uint256",
          "name": "goal",
          "type": "uint256"
        },
        {
          "internalType": "uint256",
          "name": "donated",
          "type": "uint256"
        },
        {
          "internalType": "uint32",
          "name": "startAt",
          "type": "uint32"
        },
        {
          "internalType": "uint32",
          "name": "endAt",
          "type": "uint32"
        },
        {
          "internalType": "bool",
          "name": "claimed",
          "type": "bool"
        },
        {
          "internalType": "bool",
          "name": "canceled",
          "type": "bool"
        }
      ],
      "stateMutability": "view",
      "type": "function",
      "constant": true
    },
    {
      "inputs": [
        {
          "internalType": "bytes32",
          "name": "role",
          "type": "bytes32"
        },
        {
          "internalType": "address",
          "name": "account",
          "type": "address"
        }
      ],
      "name": "renounceRole",
      "outputs": [],
      "stateMutability": "nonpayable",
      "type": "function"
    },
    {
      "inputs": [
        {
          "internalType": "bytes32",
          "name": "role",
          "type": "bytes32"
        },
        {
          "internalType": "address",
          "name": "account",
          "type": "address"
        }
      ],
      "name": "revokeRole",
      "outputs": [],
      "stateMutability": "nonpayable",
      "type": "function"
    },
    {
      "inputs": [
        {
          "internalType": "bytes4",
          "name": "interfaceId",
          "type": "bytes4"
        }
      ],
      "name": "supportsInterface",
      "outputs": [
        {
          "internalType": "bool",
          "name": "",
          "type": "bool"
        }
      ],
      "stateMutability": "view",
      "type": "function",
      "constant": true
    },
    {
      "inputs": [
        {
          "internalType": "uint256",
          "name": "_projectId",
          "type": "uint256"
        },
        {
          "internalType": "string",
          "name": "_aidAgency",
          "type": "string"
        },
        {
          "internalType": "uint256",
          "name": "_goal",
          "type": "uint256"
        },
        {
          "internalType": "uint32",
          "name": "_startAt",
          "type": "uint32"
        },
        {
          "internalType": "uint32",
          "name": "_endAt",
          "type": "uint32"
        }
      ],
      "name": "createFundRaise",
      "outputs": [],
      "stateMutability": "nonpayable",
      "type": "function"
    },
    {
      "inputs": [
        {
          "internalType": "uint256",
          "name": "_id",
          "type": "uint256"
        }
      ],
      "name": "cancel",
      "outputs": [],
      "stateMutability": "nonpayable",
      "type": "function"
    },
    {
      "inputs": [
        {
          "internalType": "uint256",
          "name": "_id",
          "type": "uint256"
        },
        {
          "internalType": "uint256",
          "name": "_amount",
          "type": "uint256"
        }
      ],
      "name": "donate",
      "outputs": [],
      "stateMutability": "nonpayable",
      "type": "function"
    },
    {
      "inputs": [
        {
          "internalType": "uint256",
          "name": "_id",
          "type": "uint256"
        },
        {
          "internalType": "uint256",
          "name": "_projectId",
          "type": "uint256"
        }
      ],
      "name": "claim",
      "outputs": [],
      "stateMutability": "nonpayable",
      "type": "function"
    }
  ],
  "bytecode": "0x60806040523480156200001157600080fd5b506040516200291d3803806200291d8339818101604052810190620000379190620002bd565b6200004c6000801b826200009560201b60201c565b81600160006101000a81548173ffffffffffffffffffffffffffffffffffffffff021916908373ffffffffffffffffffffffffffffffffffffffff160217905550505062000304565b620000a78282620000ab60201b60201c565b5050565b620000bd82826200019c60201b60201c565b6200019857600160008084815260200190815260200160002060000160008373ffffffffffffffffffffffffffffffffffffffff1673ffffffffffffffffffffffffffffffffffffffff16815260200190815260200160002060006101000a81548160ff0219169083151502179055506200013d6200020660201b60201c565b73ffffffffffffffffffffffffffffffffffffffff168173ffffffffffffffffffffffffffffffffffffffff16837f2f8788117e7eff1d82e926ec794901d17c78024a50270940304540a733656f0d60405160405180910390a45b5050565b600080600084815260200190815260200160002060000160008373ffffffffffffffffffffffffffffffffffffffff1673ffffffffffffffffffffffffffffffffffffffff16815260200190815260200160002060009054906101000a900460ff16905092915050565b600033905090565b600080fd5b600073ffffffffffffffffffffffffffffffffffffffff82169050919050565b6000620002408262000213565b9050919050565b6000620002548262000233565b9050919050565b620002668162000247565b81146200027257600080fd5b50565b60008151905062000286816200025b565b92915050565b620002978162000233565b8114620002a357600080fd5b50565b600081519050620002b7816200028c565b92915050565b60008060408385031215620002d757620002d66200020e565b5b6000620002e78582860162000275565b9250506020620002fa85828601620002a6565b9150509250929050565b61260980620003146000396000f3fe608060405234801561001057600080fd5b50600436106100f55760003560e01c806336568abe11610097578063a217fddf11610066578063a217fddf14610289578063c3490263146102a7578063d547741f146102c3578063eaf65e08146102df576100f5565b806336568abe1461020357806340e58ee51461021f578063785e9e861461023b57806391d1485414610259576100f5565b80631891e47e116100d35780631891e47e14610164578063248a9ca3146101805780632d2956e6146101b05780632f2ff15d146101e7576100f5565b806301ffc9a7146100fa57806306661abd1461012a5780630cdd53f614610148575b600080fd5b610114600480360381019061010f919061168b565b61030f565b60405161012191906116d3565b60405180910390f35b610132610389565b60405161013f9190611707565b60405180910390f35b610162600480360381019061015d919061174e565b61038f565b005b61017e6004803603810190610179919061182f565b6105e8565b005b61019a600480360381019061019591906118ff565b6108a5565b6040516101a7919061193b565b60405180910390f35b6101ca60048036038101906101c59190611956565b6108c4565b6040516101de989796959493929190611a2b565b60405180910390f35b61020160048036038101906101fc9190611b0e565b6109ce565b005b61021d60048036038101906102189190611b0e565b6109f7565b005b61023960048036038101906102349190611956565b610a7a565b005b610243610d36565b6040516102509190611bad565b60405180910390f35b610273600480360381019061026e9190611b0e565b610d5c565b60405161028091906116d3565b60405180910390f35b610291610dc6565b60405161029e919061193b565b60405180910390f35b6102c160048036038101906102bc919061174e565b610dcd565b005b6102dd60048036038101906102d89190611b0e565b610fec565b005b6102f960048036038101906102f49190611bc8565b611015565b6040516103069190611707565b60405180910390f35b60007f7965db0b000000000000000000000000000000000000000000000000000000007bffffffffffffffffffffffffffffffffffffffffffffffffffffffff1916827bffffffffffffffffffffffffffffffffffffffffffffffffffffffff1916148061038257506103818261103a565b5b9050919050565b60025481565b60006003600084815260200190815260200160002090508060040160009054906101000a900463ffffffff1663ffffffff16421015610403576040517f08c379a00000000000000000000000000000000000000000000000000000000081526004016103fa90611c7a565b60405180910390fd5b8060040160049054906101000a900463ffffffff1663ffffffff16421115610460576040517f08c379a000000000000000000000000000000000000000000000000000000000815260040161045790611ce6565b60405180910390fd5b818160030160008282546104749190611d35565b92505081905550816004600085815260200190815260200160002060003373ffffffffffffffffffffffffffffffffffffffff1673ffffffffffffffffffffffffffffffffffffffff16815260200190815260200160002060008282546104db9190611d35565b92505081905550600160009054906101000a900473ffffffffffffffffffffffffffffffffffffffff1673ffffffffffffffffffffffffffffffffffffffff166323b872dd3330856040518463ffffffff1660e01b815260040161054193929190611d9a565b602060405180830381600087803b15801561055b57600080fd5b505af115801561056f573d6000803e3d6000fd5b505050506040513d601f19601f820116820180604052508101906105939190611dfd565b503373ffffffffffffffffffffffffffffffffffffffff16837f48def02da8c59b50861e25bab759a8a0c0de6fab6448ef85f32ce59397947d80846040516105db9190611707565b60405180910390a3505050565b6105f56000801b33610d5c565b610634576040517f08c379a000000000000000000000000000000000000000000000000000000000815260040161062b90611e76565b60405180910390fd5b428263ffffffff16101561067d576040517f08c379a000000000000000000000000000000000000000000000000000000000815260040161067490611ee2565b60405180910390fd5b8163ffffffff168163ffffffff1610156106cc576040517f08c379a00000000000000000000000000000000000000000000000000000000081526004016106c390611f74565b60405180910390fd5b6001600260008282546106df9190611d35565b9250508190555060405180610100016040528087815260200186868080601f016020809104026020016040519081016040528093929190818152602001838380828437600081840152601f19601f820116905080830192505050505050508152602001848152602001600081526020018363ffffffff1681526020018263ffffffff168152602001600015158152602001600015158152506003600060025481526020019081526020016000206000820151816000015560208201518160010190805190602001906107b2929190611546565b50604082015181600201556060820151816003015560808201518160040160006101000a81548163ffffffff021916908363ffffffff16021790555060a08201518160040160046101000a81548163ffffffff021916908363ffffffff16021790555060c08201518160040160086101000a81548160ff02191690831515021790555060e08201518160040160096101000a81548160ff0219169083151502179055509050507f46f64c067cc9225574aaaba82206236e79cb30e086ff675a6693f7f329045c906002548787878787876040516108959796959493929190611fd0565b60405180910390a1505050505050565b6000806000838152602001908152602001600020600101549050919050565b60036020528060005260406000206000915090508060000154908060010180546108ed90612069565b80601f016020809104026020016040519081016040528092919081815260200182805461091990612069565b80156109665780601f1061093b57610100808354040283529160200191610966565b820191906000526020600020905b81548152906001019060200180831161094957829003601f168201915b5050505050908060020154908060030154908060040160009054906101000a900463ffffffff16908060040160049054906101000a900463ffffffff16908060040160089054906101000a900460ff16908060040160099054906101000a900460ff16905088565b6109d7826108a5565b6109e8816109e36110a4565b6110ac565b6109f28383611149565b505050565b6109ff6110a4565b73ffffffffffffffffffffffffffffffffffffffff168173ffffffffffffffffffffffffffffffffffffffff1614610a6c576040517f08c379a0000000000000000000000000000000000000000000000000000000008152600401610a639061210d565b60405180910390fd5b610a768282611229565b5050565b610a876000801b33610d5c565b610ac6576040517f08c379a0000000000000000000000000000000000000000000000000000000008152600401610abd90611e76565b60405180910390fd5b6000600360008381526020019081526020016000206040518061010001604052908160008201548152602001600182018054610b0190612069565b80601f0160208091040260200160405190810160405280929190818152602001828054610b2d90612069565b8015610b7a5780601f10610b4f57610100808354040283529160200191610b7a565b820191906000526020600020905b815481529060010190602001808311610b5d57829003601f168201915b5050505050815260200160028201548152602001600382015481526020016004820160009054906101000a900463ffffffff1663ffffffff1663ffffffff1681526020016004820160049054906101000a900463ffffffff1663ffffffff1663ffffffff1681526020016004820160089054906101000a900460ff161515151581526020016004820160099054906101000a900460ff1615151515815250509050806080015163ffffffff164210610c67576040517f08c379a0000000000000000000000000000000000000000000000000000000008152600401610c5e9061219f565b60405180910390fd5b60036000838152602001908152602001600020600080820160009055600182016000610c9391906115cc565b600282016000905560038201600090556004820160006101000a81549063ffffffff02191690556004820160046101000a81549063ffffffff02191690556004820160086101000a81549060ff02191690556004820160096101000a81549060ff021916905550507f8bf30e7ff26833413be5f69e1d373744864d600b664204b4a2f9844a8eedb9ed82604051610d2a9190611707565b60405180910390a15050565b600160009054906101000a900473ffffffffffffffffffffffffffffffffffffffff1681565b600080600084815260200190815260200160002060000160008373ffffffffffffffffffffffffffffffffffffffff1673ffffffffffffffffffffffffffffffffffffffff16815260200190815260200160002060009054906101000a900460ff16905092915050565b6000801b81565b60006003600084815260200190815260200160002090508060040160049054906101000a900463ffffffff1663ffffffff164211610e40576040517f08c379a0000000000000000000000000000000000000000000000000000000008152600401610e379061220b565b60405180910390fd5b806002015481600301541015610e8b576040517f08c379a0000000000000000000000000000000000000000000000000000000008152600401610e8290612277565b60405180910390fd5b8060040160089054906101000a900460ff1615610edd576040517f08c379a0000000000000000000000000000000000000000000000000000000008152600401610ed4906122e3565b60405180910390fd5b60018160040160086101000a81548160ff021916908315150217905550600160009054906101000a900473ffffffffffffffffffffffffffffffffffffffff1673ffffffffffffffffffffffffffffffffffffffff1663a9059cbb3383600301546040518363ffffffff1660e01b8152600401610f5b929190612303565b602060405180830381600087803b158015610f7557600080fd5b505af1158015610f89573d6000803e3d6000fd5b505050506040513d601f19601f82011682018060405250810190610fad9190611dfd565b507f022e3d29644ead4083349ca84d24bcac368b2461819b70f5921fea15de4dec4d8383604051610fdf92919061232c565b60405180910390a1505050565b610ff5826108a5565b611006816110016110a4565b6110ac565b6110108383611229565b505050565b6004602052816000526040600020602052806000526040600020600091509150505481565b60007f01ffc9a7000000000000000000000000000000000000000000000000000000007bffffffffffffffffffffffffffffffffffffffffffffffffffffffff1916827bffffffffffffffffffffffffffffffffffffffffffffffffffffffff1916149050919050565b600033905090565b6110b68282610d5c565b611145576110db8173ffffffffffffffffffffffffffffffffffffffff16601461130a565b6110e98360001c602061130a565b6040516020016110fa929190612429565b6040516020818303038152906040526040517f08c379a000000000000000000000000000000000000000000000000000000000815260040161113c9190612463565b60405180910390fd5b5050565b6111538282610d5c565b61122557600160008084815260200190815260200160002060000160008373ffffffffffffffffffffffffffffffffffffffff1673ffffffffffffffffffffffffffffffffffffffff16815260200190815260200160002060006101000a81548160ff0219169083151502179055506111ca6110a4565b73ffffffffffffffffffffffffffffffffffffffff168173ffffffffffffffffffffffffffffffffffffffff16837f2f8788117e7eff1d82e926ec794901d17c78024a50270940304540a733656f0d60405160405180910390a45b5050565b6112338282610d5c565b1561130657600080600084815260200190815260200160002060000160008373ffffffffffffffffffffffffffffffffffffffff1673ffffffffffffffffffffffffffffffffffffffff16815260200190815260200160002060006101000a81548160ff0219169083151502179055506112ab6110a4565b73ffffffffffffffffffffffffffffffffffffffff168173ffffffffffffffffffffffffffffffffffffffff16837ff6391f5c32d9c69d2a47ea670b442974b53935d1edc7fd64eb21e047a839171b60405160405180910390a45b5050565b60606000600283600261131d9190612485565b6113279190611d35565b67ffffffffffffffff8111156113405761133f6124df565b5b6040519080825280601f01601f1916602001820160405280156113725781602001600182028036833780820191505090505b5090507f3000000000000000000000000000000000000000000000000000000000000000816000815181106113aa576113a961250e565b5b60200101907effffffffffffffffffffffffffffffffffffffffffffffffffffffffffffff1916908160001a9053507f78000000000000000000000000000000000000000000000000000000000000008160018151811061140e5761140d61250e565b5b60200101907effffffffffffffffffffffffffffffffffffffffffffffffffffffffffffff1916908160001a9053506000600184600261144e9190612485565b6114589190611d35565b90505b60018111156114f8577f3031323334353637383961626364656600000000000000000000000000000000600f86166010811061149a5761149961250e565b5b1a60f81b8282815181106114b1576114b061250e565b5b60200101907effffffffffffffffffffffffffffffffffffffffffffffffffffffffffffff1916908160001a905350600485901c9450806114f19061253d565b905061145b565b506000841461153c576040517f08c379a0000000000000000000000000000000000000000000000000000000008152600401611533906125b3565b60405180910390fd5b8091505092915050565b82805461155290612069565b90600052602060002090601f01602090048101928261157457600085556115bb565b82601f1061158d57805160ff19168380011785556115bb565b828001600101855582156115bb579182015b828111156115ba57825182559160200191906001019061159f565b5b5090506115c8919061160c565b5090565b5080546115d890612069565b6000825580601f106115ea5750611609565b601f016020900490600052602060002090810190611608919061160c565b5b50565b5b8082111561162557600081600090555060010161160d565b5090565b600080fd5b600080fd5b60007fffffffff0000000000000000000000000000000000000000000000000000000082169050919050565b61166881611633565b811461167357600080fd5b50565b6000813590506116858161165f565b92915050565b6000602082840312156116a1576116a0611629565b5b60006116af84828501611676565b91505092915050565b60008115159050919050565b6116cd816116b8565b82525050565b60006020820190506116e860008301846116c4565b92915050565b6000819050919050565b611701816116ee565b82525050565b600060208201905061171c60008301846116f8565b92915050565b61172b816116ee565b811461173657600080fd5b50565b60008135905061174881611722565b92915050565b6000806040838503121561176557611764611629565b5b600061177385828601611739565b925050602061178485828601611739565b9150509250929050565b600080fd5b600080fd5b600080fd5b60008083601f8401126117b3576117b261178e565b5b8235905067ffffffffffffffff8111156117d0576117cf611793565b5b6020830191508360018202830111156117ec576117eb611798565b5b9250929050565b600063ffffffff82169050919050565b61180c816117f3565b811461181757600080fd5b50565b60008135905061182981611803565b92915050565b60008060008060008060a0878903121561184c5761184b611629565b5b600061185a89828a01611739565b965050602087013567ffffffffffffffff81111561187b5761187a61162e565b5b61188789828a0161179d565b9550955050604061189a89828a01611739565b93505060606118ab89828a0161181a565b92505060806118bc89828a0161181a565b9150509295509295509295565b6000819050919050565b6118dc816118c9565b81146118e757600080fd5b50565b6000813590506118f9816118d3565b92915050565b60006020828403121561191557611914611629565b5b6000611923848285016118ea565b91505092915050565b611935816118c9565b82525050565b6000602082019050611950600083018461192c565b92915050565b60006020828403121561196c5761196b611629565b5b600061197a84828501611739565b91505092915050565b600081519050919050565b600082825260208201905092915050565b60005b838110156119bd5780820151818401526020810190506119a2565b838111156119cc576000848401525b50505050565b6000601f19601f8301169050919050565b60006119ee82611983565b6119f8818561198e565b9350611a0881856020860161199f565b611a11816119d2565b840191505092915050565b611a25816117f3565b82525050565b600061010082019050611a41600083018b6116f8565b8181036020830152611a53818a6119e3565b9050611a6260408301896116f8565b611a6f60608301886116f8565b611a7c6080830187611a1c565b611a8960a0830186611a1c565b611a9660c08301856116c4565b611aa360e08301846116c4565b9998505050505050505050565b600073ffffffffffffffffffffffffffffffffffffffff82169050919050565b6000611adb82611ab0565b9050919050565b611aeb81611ad0565b8114611af657600080fd5b50565b600081359050611b0881611ae2565b92915050565b60008060408385031215611b2557611b24611629565b5b6000611b33858286016118ea565b9250506020611b4485828601611af9565b9150509250929050565b6000819050919050565b6000611b73611b6e611b6984611ab0565b611b4e565b611ab0565b9050919050565b6000611b8582611b58565b9050919050565b6000611b9782611b7a565b9050919050565b611ba781611b8c565b82525050565b6000602082019050611bc26000830184611b9e565b92915050565b60008060408385031215611bdf57611bde611629565b5b6000611bed85828601611739565b9250506020611bfe85828601611af9565b9150509250929050565b7f53414841594f47493a2046756e642072616973696e67206e6f7420737461727460008201527f6564207965740000000000000000000000000000000000000000000000000000602082015250565b6000611c6460268361198e565b9150611c6f82611c08565b604082019050919050565b60006020820190508181036000830152611c9381611c57565b9050919050565b7f53414841594f47493a2046756e642072616973696e672066696e697368656400600082015250565b6000611cd0601f8361198e565b9150611cdb82611c9a565b602082019050919050565b60006020820190508181036000830152611cff81611cc3565b9050919050565b7f4e487b7100000000000000000000000000000000000000000000000000000000600052601160045260246000fd5b6000611d40826116ee565b9150611d4b836116ee565b9250827fffffffffffffffffffffffffffffffffffffffffffffffffffffffffffffffff03821115611d8057611d7f611d06565b5b828201905092915050565b611d9481611ad0565b82525050565b6000606082019050611daf6000830186611d8b565b611dbc6020830185611d8b565b611dc960408301846116f8565b949350505050565b611dda816116b8565b8114611de557600080fd5b50565b600081519050611df781611dd1565b92915050565b600060208284031215611e1357611e12611629565b5b6000611e2184828501611de8565b91505092915050565b7f53414841594f47493a4d5553542042452041444d494e00000000000000000000600082015250565b6000611e6060168361198e565b9150611e6b82611e2a565b602082019050919050565b60006020820190508181036000830152611e8f81611e53565b9050919050565b7f53414841594f47493a207374617274696e672074696d65206973203c206e6f77600082015250565b6000611ecc60208361198e565b9150611ed782611e96565b602082019050919050565b60006020820190508181036000830152611efb81611ebf565b9050919050565b7f53414841594f47493a20656e64696e672074696d6520203c207374617274696e60008201527f672074696d652000000000000000000000000000000000000000000000000000602082015250565b6000611f5e60278361198e565b9150611f6982611f02565b604082019050919050565b60006020820190508181036000830152611f8d81611f51565b9050919050565b82818337600083830152505050565b6000611faf838561198e565b9350611fbc838584611f94565b611fc5836119d2565b840190509392505050565b600060c082019050611fe5600083018a6116f8565b611ff260208301896116f8565b8181036040830152612005818789611fa3565b905061201460608301866116f8565b6120216080830185611a1c565b61202e60a0830184611a1c565b98975050505050505050565b7f4e487b7100000000000000000000000000000000000000000000000000000000600052602260045260246000fd5b6000600282049050600182168061208157607f821691505b602082108114156120955761209461203a565b5b50919050565b7f416363657373436f6e74726f6c3a2063616e206f6e6c792072656e6f756e636560008201527f20726f6c657320666f722073656c660000000000000000000000000000000000602082015250565b60006120f7602f8361198e565b91506121028261209b565b604082019050919050565b60006020820190508181036000830152612126816120ea565b9050919050565b7f53414841594f47493a2046756e642072616973696e6720616c7265616479207360008201527f7461727465642063616e742062652063616e63656c6564000000000000000000602082015250565b600061218960378361198e565b91506121948261212d565b604082019050919050565b600060208201905081810360008301526121b88161217c565b9050919050565b7f53414841594f47493a2046756e642072616973696e67206e6f7420656e646564600082015250565b60006121f560208361198e565b9150612200826121bf565b602082019050919050565b60006020820190508181036000830152612224816121e8565b9050919050565b7f53414841594f47493a206861736e6f74207265616368656420676f616c000000600082015250565b6000612261601d8361198e565b915061226c8261222b565b602082019050919050565b6000602082019050818103600083015261229081612254565b9050919050565b7f53414841594f47493a20416c726561647920636c61696d656400000000000000600082015250565b60006122cd60198361198e565b91506122d882612297565b602082019050919050565b600060208201905081810360008301526122fc816122c0565b9050919050565b60006040820190506123186000830185611d8b565b61232560208301846116f8565b9392505050565b600060408201905061234160008301856116f8565b61234e60208301846116f8565b9392505050565b600081905092915050565b7f416363657373436f6e74726f6c3a206163636f756e7420000000000000000000600082015250565b6000612396601783612355565b91506123a182612360565b601782019050919050565b60006123b782611983565b6123c18185612355565b93506123d181856020860161199f565b80840191505092915050565b7f206973206d697373696e6720726f6c6520000000000000000000000000000000600082015250565b6000612413601183612355565b915061241e826123dd565b601182019050919050565b600061243482612389565b915061244082856123ac565b915061244b82612406565b915061245782846123ac565b91508190509392505050565b6000602082019050818103600083015261247d81846119e3565b905092915050565b6000612490826116ee565b915061249b836116ee565b9250817fffffffffffffffffffffffffffffffffffffffffffffffffffffffffffffffff04831182151516156124d4576124d3611d06565b5b828202905092915050565b7f4e487b7100000000000000000000000000000000000000000000000000000000600052604160045260246000fd5b7f4e487b7100000000000000000000000000000000000000000000000000000000600052603260045260246000fd5b6000612548826116ee565b9150600082141561255c5761255b611d06565b5b600182039050919050565b7f537472696e67733a20686578206c656e67746820696e73756666696369656e74600082015250565b600061259d60208361198e565b91506125a882612567565b602082019050919050565b600060208201905081810360008301526125cc81612590565b905091905056fea2646970667358221220fab3a7562540240bd6b0e2ea28d394554fd1c15bbf2ad137eba4bcadba08c7db64736f6c63430008090033",
  "immutableReferences": {},
  "source": "// SPDX-License-Identifier: MIT\npragma solidity >=0.4.22 <0.9.0;\n\nimport \"./SahayogiToken.sol\";\nimport \"@openzeppelin/contracts/access/AccessControl.sol\";\n\ncontract FundRaising is AccessControl {\n    event Claim(\n        uint256 id,\n        uint256 projectId\n    );\n\n    event Create(\n        uint256 id,\n        uint256 projectId,\n        string aidAgency,\n        uint256 goal,\n        uint32 startAt,\n        uint32 endAt\n    );\n    event Cancel(uint256 id);\n    event Donate(\n        uint256 indexed id,\n        address indexed caller,\n        uint256 amount\n    );\n    struct RaiseFund {\n        uint256 projectId;\n        string aidAgency;\n        //total tokens to be collected\n        uint256 goal;\n        uint256 donated;\n        uint32 startAt;\n        uint32 endAt;\n        bool claimed;\n        bool canceled;\n    }\n\n    //state\n    SahayogiToken public erc20;\n    //FRid=> RaiseFund\n    uint256 public count;\n    mapping(uint256 => RaiseFund) public raiseFunds;\n    // RFid=>userAdd=>amount\n    mapping(uint256 => mapping(address => uint256)) public donatedAmount;\n\n    constructor(SahayogiToken _erc20,address _admin) {\n        _setupRole(DEFAULT_ADMIN_ROLE, _admin);\n        erc20 = _erc20;\n       \n    }\n    modifier OnlyAdmin() {\n        require(hasRole(DEFAULT_ADMIN_ROLE, msg.sender), \"SAHAYOGI:MUST BE ADMIN\");\n        _;\n    }\n\n    function createFundRaise(\n        uint256 _projectId,\n        string calldata _aidAgency,\n        uint256 _goal,\n        uint32 _startAt,\n        uint32 _endAt\n    ) public OnlyAdmin {\n        require(_startAt >= block.timestamp, \"SAHAYOGI: starting time is < now\");\n        require(_endAt >= _startAt, \"SAHAYOGI: ending time  < starting time \");\n        count += 1;\n        raiseFunds[count] = RaiseFund({\n            projectId:_projectId,\n            aidAgency: _aidAgency, \n            goal: _goal,\n            donated: 0,\n            startAt: _startAt,\n            endAt: _endAt,\n            claimed: false,\n            canceled: false\n        });\n        emit Create(count,_projectId,_aidAgency, _goal, _startAt, _endAt);\n    }\n\n    function cancel(uint256 _id) public OnlyAdmin {\n        RaiseFund memory raiseFund = raiseFunds[_id];\n        require(\n            block.timestamp < raiseFund.startAt,\n            \"SAHAYOGI: Fund raising already started cant be canceled\"\n        );\n        delete raiseFunds[_id];\n        emit Cancel(_id);\n    }\n\n    function donate(uint256 _id, uint256 _amount) external {\n        RaiseFund storage raiseFund = raiseFunds[_id];\n        require(block.timestamp >= raiseFund.startAt, \"SAHAYOGI: Fund raising not started yet\");\n        require(block.timestamp <= raiseFund.endAt, \"SAHAYOGI: Fund raising finished\");\n\n        raiseFund.donated += _amount;\n        donatedAmount[_id][msg.sender] += _amount;\n        erc20.transferFrom(msg.sender, address(this), _amount);\n\n        emit Donate(_id, msg.sender, _amount);\n    }\n    \n    function claim(uint256 _id,uint256 _projectId) external {\n        RaiseFund storage raiseFund = raiseFunds[_id];\n        require(block.timestamp > raiseFund.endAt,\"SAHAYOGI: Fund raising not ended\");\n        require(raiseFund.donated >= raiseFund.goal,\"SAHAYOGI: hasnot reached goal\");\n        require(!raiseFund.claimed,\"SAHAYOGI: Already claimed\");\n        raiseFund.claimed = true;\n        erc20.transfer(msg.sender,raiseFund.donated);\n\n        emit Claim(_id,_projectId);\n    }\n}\n",
  "sourcePath": "/home/anisha/Desktop/sahayogi/contracts/FundRaising.sol",
  "compiler": {
    "name": "solc",
    "version": "0.8.9+commit.e5eed63a.Emscripten.clang"
  },
  "schemaVersion": "3.4.4",
  "updatedAt": "2022-02-28T14:40:52.457Z",
  "networkType": "ethereum",
  "devdoc": {
    "kind": "dev",
    "methods": {
      "getRoleAdmin(bytes32)": {
        "details": "Returns the admin role that controls `role`. See {grantRole} and {revokeRole}. To change a role's admin, use {_setRoleAdmin}."
      },
      "grantRole(bytes32,address)": {
        "details": "Grants `role` to `account`. If `account` had not been already granted `role`, emits a {RoleGranted} event. Requirements: - the caller must have ``role``'s admin role."
      },
      "hasRole(bytes32,address)": {
        "details": "Returns `true` if `account` has been granted `role`."
      },
      "renounceRole(bytes32,address)": {
        "details": "Revokes `role` from the calling account. Roles are often managed via {grantRole} and {revokeRole}: this function's purpose is to provide a mechanism for accounts to lose their privileges if they are compromised (such as when a trusted device is misplaced). If the calling account had been granted `role`, emits a {RoleRevoked} event. Requirements: - the caller must be `account`."
      },
      "revokeRole(bytes32,address)": {
        "details": "Revokes `role` from `account`. If `account` had been granted `role`, emits a {RoleRevoked} event. Requirements: - the caller must have ``role``'s admin role."
      },
      "supportsInterface(bytes4)": {
        "details": "See {IERC165-supportsInterface}."
      }
    },
    "version": 1
  },
  "userdoc": {
    "kind": "user",
    "methods": {},
    "version": 1
  }
}