{
  "contractName": "SahayogiAgency",
  "abi": [
    {
      "inputs": [
        {
          "internalType": "address",
          "name": "_token",
          "type": "address"
        },
        {
          "internalType": "address",
          "name": "_FundRaisingContract",
          "type": "address"
        },
        {
          "internalType": "address",
          "name": "_admin",
          "type": "address"
        }
      ],
      "stateMutability": "nonpayable",
      "type": "constructor"
    },
    {
      "anonymous": false,
      "inputs": [
        {
          "indexed": false,
          "internalType": "uint256",
          "name": "projectId",
          "type": "uint256"
        },
        {
          "indexed": false,
          "internalType": "uint256",
          "name": "index",
          "type": "uint256"
        },
        {
          "indexed": false,
          "internalType": "address",
          "name": "account",
          "type": "address"
        },
        {
          "indexed": false,
          "internalType": "uint256",
          "name": "amount",
          "type": "uint256"
        }
      ],
      "name": "Claimed",
      "type": "event"
    },
    {
      "anonymous": false,
      "inputs": [
        {
          "indexed": false,
          "internalType": "uint256",
          "name": "projectId",
          "type": "uint256"
        },
        {
          "indexed": false,
          "internalType": "string",
          "name": "projectName",
          "type": "string"
        }
      ],
      "name": "Create",
      "type": "event"
    },
    {
      "anonymous": false,
      "inputs": [
        {
          "indexed": true,
          "internalType": "bytes32",
          "name": "role",
          "type": "bytes32"
        },
        {
          "indexed": true,
          "internalType": "bytes32",
          "name": "previousAdminRole",
          "type": "bytes32"
        },
        {
          "indexed": true,
          "internalType": "bytes32",
          "name": "newAdminRole",
          "type": "bytes32"
        }
      ],
      "name": "RoleAdminChanged",
      "type": "event"
    },
    {
      "anonymous": false,
      "inputs": [
        {
          "indexed": true,
          "internalType": "bytes32",
          "name": "role",
          "type": "bytes32"
        },
        {
          "indexed": true,
          "internalType": "address",
          "name": "account",
          "type": "address"
        },
        {
          "indexed": true,
          "internalType": "address",
          "name": "sender",
          "type": "address"
        }
      ],
      "name": "RoleGranted",
      "type": "event"
    },
    {
      "anonymous": false,
      "inputs": [
        {
          "indexed": true,
          "internalType": "bytes32",
          "name": "role",
          "type": "bytes32"
        },
        {
          "indexed": true,
          "internalType": "address",
          "name": "account",
          "type": "address"
        },
        {
          "indexed": true,
          "internalType": "address",
          "name": "sender",
          "type": "address"
        }
      ],
      "name": "RoleRevoked",
      "type": "event"
    },
    {
      "inputs": [],
      "name": "AGENCY_ROLE",
      "outputs": [
        {
          "internalType": "bytes32",
          "name": "",
          "type": "bytes32"
        }
      ],
      "stateMutability": "view",
      "type": "function",
      "constant": true
    },
    {
      "inputs": [],
      "name": "DEFAULT_ADMIN_ROLE",
      "outputs": [
        {
          "internalType": "bytes32",
          "name": "",
          "type": "bytes32"
        }
      ],
      "stateMutability": "view",
      "type": "function",
      "constant": true
    },
    {
      "inputs": [],
      "name": "FundRaisingContract",
      "outputs": [
        {
          "internalType": "contract FundRaising",
          "name": "",
          "type": "address"
        }
      ],
      "stateMutability": "view",
      "type": "function",
      "constant": true
    },
    {
      "inputs": [],
      "name": "count",
      "outputs": [
        {
          "internalType": "uint256",
          "name": "",
          "type": "uint256"
        }
      ],
      "stateMutability": "view",
      "type": "function",
      "constant": true
    },
    {
      "inputs": [
        {
          "internalType": "bytes32",
          "name": "role",
          "type": "bytes32"
        }
      ],
      "name": "getRoleAdmin",
      "outputs": [
        {
          "internalType": "bytes32",
          "name": "",
          "type": "bytes32"
        }
      ],
      "stateMutability": "view",
      "type": "function",
      "constant": true
    },
    {
      "inputs": [
        {
          "internalType": "bytes32",
          "name": "role",
          "type": "bytes32"
        },
        {
          "internalType": "address",
          "name": "account",
          "type": "address"
        }
      ],
      "name": "grantRole",
      "outputs": [],
      "stateMutability": "nonpayable",
      "type": "function"
    },
    {
      "inputs": [
        {
          "internalType": "bytes32",
          "name": "role",
          "type": "bytes32"
        },
        {
          "internalType": "address",
          "name": "account",
          "type": "address"
        }
      ],
      "name": "hasRole",
      "outputs": [
        {
          "internalType": "bool",
          "name": "",
          "type": "bool"
        }
      ],
      "stateMutability": "view",
      "type": "function",
      "constant": true
    },
    {
      "inputs": [
        {
          "internalType": "uint256",
          "name": "",
          "type": "uint256"
        }
      ],
      "name": "merkleRoot",
      "outputs": [
        {
          "internalType": "bytes32",
          "name": "",
          "type": "bytes32"
        }
      ],
      "stateMutability": "view",
      "type": "function",
      "constant": true
    },
    {
      "inputs": [
        {
          "internalType": "uint256",
          "name": "",
          "type": "uint256"
        }
      ],
      "name": "projects",
      "outputs": [
        {
          "internalType": "string",
          "name": "projectName",
          "type": "string"
        },
        {
          "internalType": "bool",
          "name": "running",
          "type": "bool"
        }
      ],
      "stateMutability": "view",
      "type": "function",
      "constant": true
    },
    {
      "inputs": [
        {
          "internalType": "bytes32",
          "name": "role",
          "type": "bytes32"
        },
        {
          "internalType": "address",
          "name": "account",
          "type": "address"
        }
      ],
      "name": "renounceRole",
      "outputs": [],
      "stateMutability": "nonpayable",
      "type": "function"
    },
    {
      "inputs": [
        {
          "internalType": "bytes32",
          "name": "role",
          "type": "bytes32"
        },
        {
          "internalType": "address",
          "name": "account",
          "type": "address"
        }
      ],
      "name": "revokeRole",
      "outputs": [],
      "stateMutability": "nonpayable",
      "type": "function"
    },
    {
      "inputs": [
        {
          "internalType": "bytes4",
          "name": "interfaceId",
          "type": "bytes4"
        }
      ],
      "name": "supportsInterface",
      "outputs": [
        {
          "internalType": "bool",
          "name": "",
          "type": "bool"
        }
      ],
      "stateMutability": "view",
      "type": "function",
      "constant": true
    },
    {
      "inputs": [],
      "name": "token",
      "outputs": [
        {
          "internalType": "address",
          "name": "",
          "type": "address"
        }
      ],
      "stateMutability": "view",
      "type": "function",
      "constant": true
    },
    {
      "inputs": [
        {
          "internalType": "address",
          "name": "_account",
          "type": "address"
        }
      ],
      "name": "addAgency",
      "outputs": [],
      "stateMutability": "nonpayable",
      "type": "function"
    },
    {
      "inputs": [
        {
          "internalType": "string",
          "name": "_projectName",
          "type": "string"
        }
      ],
      "name": "createProject",
      "outputs": [
        {
          "internalType": "uint256",
          "name": "",
          "type": "uint256"
        }
      ],
      "stateMutability": "nonpayable",
      "type": "function"
    },
    {
      "inputs": [
        {
          "internalType": "uint256",
          "name": "_projectId",
          "type": "uint256"
        }
      ],
      "name": "getProjectInfo",
      "outputs": [
        {
          "internalType": "string",
          "name": "PROJECTNAME_",
          "type": "string"
        }
      ],
      "stateMutability": "view",
      "type": "function",
      "constant": true
    },
    {
      "inputs": [
        {
          "internalType": "uint256",
          "name": "_id",
          "type": "uint256"
        },
        {
          "internalType": "uint256",
          "name": "_projectId",
          "type": "uint256"
        }
      ],
      "name": "claimFunds",
      "outputs": [],
      "stateMutability": "nonpayable",
      "type": "function"
    },
    {
      "inputs": [
        {
          "internalType": "uint256",
          "name": "projectId",
          "type": "uint256"
        },
        {
          "internalType": "uint256",
          "name": "index",
          "type": "uint256"
        },
        {
          "internalType": "address",
          "name": "account",
          "type": "address"
        },
        {
          "internalType": "uint256",
          "name": "amount",
          "type": "uint256"
        },
        {
          "internalType": "bytes32[]",
          "name": "merkleProof",
          "type": "bytes32[]"
        }
      ],
      "name": "claim",
      "outputs": [],
      "stateMutability": "nonpayable",
      "type": "function"
    },
    {
      "inputs": [
        {
          "internalType": "uint256",
          "name": "projectId",
          "type": "uint256"
        },
        {
          "internalType": "uint256",
          "name": "index",
          "type": "uint256"
        }
      ],
      "name": "isClaimed",
      "outputs": [
        {
          "internalType": "bool",
          "name": "",
          "type": "bool"
        }
      ],
      "stateMutability": "view",
      "type": "function",
      "constant": true
    },
    {
      "inputs": [
        {
          "internalType": "uint256",
          "name": "_projectId",
          "type": "uint256"
        },
        {
          "internalType": "bytes32",
          "name": "_newMerkleRoot",
          "type": "bytes32"
        }
      ],
      "name": "updateMerkleRoot",
      "outputs": [],
      "stateMutability": "nonpayable",
      "type": "function"
    },
    {
      "inputs": [
        {
          "internalType": "uint256",
          "name": "amount",
          "type": "uint256"
        }
      ],
      "name": "withdrawToken",
      "outputs": [],
      "stateMutability": "nonpayable",
      "type": "function"
    }
  ],
  "bytecode": "0x60806040523480156200001157600080fd5b5060405162002914380380620029148339818101604052810190620000379190620002ba565b81600260006101000a81548173ffffffffffffffffffffffffffffffffffffffff021916908373ffffffffffffffffffffffffffffffffffffffff1602179055506200008d6000801b82620000d760201b60201c565b82600460006101000a81548173ffffffffffffffffffffffffffffffffffffffff021916908373ffffffffffffffffffffffffffffffffffffffff16021790555050505062000316565b620000e98282620000ed60201b60201c565b5050565b620000ff8282620001de60201b60201c565b620001da57600160008084815260200190815260200160002060000160008373ffffffffffffffffffffffffffffffffffffffff1673ffffffffffffffffffffffffffffffffffffffff16815260200190815260200160002060006101000a81548160ff0219169083151502179055506200017f6200024860201b60201c565b73ffffffffffffffffffffffffffffffffffffffff168173ffffffffffffffffffffffffffffffffffffffff16837f2f8788117e7eff1d82e926ec794901d17c78024a50270940304540a733656f0d60405160405180910390a45b5050565b600080600084815260200190815260200160002060000160008373ffffffffffffffffffffffffffffffffffffffff1673ffffffffffffffffffffffffffffffffffffffff16815260200190815260200160002060009054906101000a900460ff16905092915050565b600033905090565b600080fd5b600073ffffffffffffffffffffffffffffffffffffffff82169050919050565b6000620002828262000255565b9050919050565b620002948162000275565b8114620002a057600080fd5b50565b600081519050620002b48162000289565b92915050565b600080600060608486031215620002d657620002d562000250565b5b6000620002e686828701620002a3565b9350506020620002f986828701620002a3565b92505060406200030c86828701620002a3565b9150509250925092565b6125ee80620003266000396000f3fe608060405234801561001057600080fd5b50600436106101375760003560e01c806350baa622116100b8578063d547741f1161007c578063d547741f1461035f578063f1e331151461037b578063f364c90c14610397578063f81fb4dd146103c7578063fabf5968146103e5578063fc0c546a1461041557610137565b806350baa622146102bd5780635d4df3bf146102d957806391d14854146102f5578063a217fddf14610325578063b6daea6c1461034357610137565b8063248a9ca3116100ff578063248a9ca3146102075780632f2ff15d1461023757806336568abe146102535780633c70b3571461026f5780634d0adefd1461029f57610137565b8063010b58ee1461013c57806301ffc9a71461015857806306661abd14610188578063107046bd146101a657806315ee4df1146101d7575b600080fd5b61015660048036038101906101519190611636565b610433565b005b610172600480360381019061016d91906116ce565b610598565b60405161017f9190611716565b60405180910390f35b610190610612565b60405161019d9190611740565b60405180910390f35b6101c060048036038101906101bb919061175b565b610618565b6040516101ce929190611821565b60405180910390f35b6101f160048036038101906101ec91906118b6565b6106d1565b6040516101fe9190611740565b60405180910390f35b610221600480360381019061021c9190611939565b61084f565b60405161022e9190611975565b60405180910390f35b610251600480360381019061024c91906119ee565b61086e565b005b61026d600480360381019061026891906119ee565b610897565b005b6102896004803603810190610284919061175b565b61091a565b6040516102969190611975565b60405180910390f35b6102a7610932565b6040516102b49190611975565b60405180910390f35b6102d760048036038101906102d2919061175b565b610956565b005b6102f360048036038101906102ee9190611a84565b610a09565b005b61030f600480360381019061030a91906119ee565b610c20565b60405161031c9190611716565b60405180910390f35b61032d610c8a565b60405161033a9190611975565b60405180910390f35b61035d60048036038101906103589190611b1e565b610c91565b005b610379600480360381019061037491906119ee565b610d0a565b005b61039560048036038101906103909190611b4b565b610d33565b005b6103b160048036038101906103ac9190611636565b610db8565b6040516103be9190611716565b60405180910390f35b6103cf610e20565b6040516103dc9190611bea565b60405180910390f35b6103ff60048036038101906103fa919061175b565b610e46565b60405161040c9190611c05565b60405180910390f35b61041d610eee565b60405161042a9190611c36565b60405180910390f35b61045d7f95ecd50786af45ce6b701c5289aa57cf8909047eb4a0bcdb59129c5ba4ed4ebf33610c20565b61049c576040517f08c379a000000000000000000000000000000000000000000000000000000000815260040161049390611c9d565b60405180910390fd5b60006001600083815260200190815260200160002090508060010160009054906101000a900460ff16610504576040517f08c379a00000000000000000000000000000000000000000000000000000000081526004016104fb90611d09565b60405180910390fd5b600260009054906101000a900473ffffffffffffffffffffffffffffffffffffffff1673ffffffffffffffffffffffffffffffffffffffff1663c349026384846040518363ffffffff1660e01b8152600401610561929190611d29565b600060405180830381600087803b15801561057b57600080fd5b505af115801561058f573d6000803e3d6000fd5b50505050505050565b60007f7965db0b000000000000000000000000000000000000000000000000000000007bffffffffffffffffffffffffffffffffffffffffffffffffffffffff1916827bffffffffffffffffffffffffffffffffffffffffffffffffffffffff1916148061060b575061060a82610f14565b5b9050919050565b60035481565b600160205280600052604060002060009150905080600001805461063b90611d81565b80601f016020809104026020016040519081016040528092919081815260200182805461066790611d81565b80156106b45780601f10610689576101008083540402835291602001916106b4565b820191906000526020600020905b81548152906001019060200180831161069757829003601f168201915b5050505050908060010160009054906101000a900460ff16905082565b60006106fd7f95ecd50786af45ce6b701c5289aa57cf8909047eb4a0bcdb59129c5ba4ed4ebf33610c20565b61073c576040517f08c379a000000000000000000000000000000000000000000000000000000000815260040161073390611c9d565b60405180910390fd5b60016003600082825461074f9190611de2565b92505081905550604051806040016040528084848080601f016020809104026020016040519081016040528093929190818152602001838380828437600081840152601f19601f8201169050808301925050505050505081526020016001151581525060016000600354815260200190815260200160002060008201518160000190805190602001906107e3929190611553565b5060208201518160010160006101000a81548160ff0219169083151502179055509050507fbba37318c149b1db7d49c422b47f2a61ba899714cb9c7377168ec21d7edfaae1600354848460405161083c93929190611e74565b60405180910390a1600354905092915050565b6000806000838152602001908152602001600020600101549050919050565b6108778261084f565b61088881610883610f7e565b610f86565b6108928383611023565b505050565b61089f610f7e565b73ffffffffffffffffffffffffffffffffffffffff168173ffffffffffffffffffffffffffffffffffffffff161461090c576040517f08c379a000000000000000000000000000000000000000000000000000000000815260040161090390611f18565b60405180910390fd5b6109168282611103565b5050565b60056020528060005260406000206000915090505481565b7f95ecd50786af45ce6b701c5289aa57cf8909047eb4a0bcdb59129c5ba4ed4ebf81565b600460009054906101000a900473ffffffffffffffffffffffffffffffffffffffff1673ffffffffffffffffffffffffffffffffffffffff1663a9059cbb33836040518363ffffffff1660e01b81526004016109b3929190611f38565b602060405180830381600087803b1580156109cd57600080fd5b505af11580156109e1573d6000803e3d6000fd5b505050506040513d601f19601f82011682018060405250810190610a059190611f8d565b5050565b610a138686610db8565b15610a53576040517f08c379a0000000000000000000000000000000000000000000000000000000008152600401610a4a9061202c565b60405180910390fd5b6000858585604051602001610a6a939291906120b5565b604051602081830303815290604052805190602001209050610ae1838380806020026020016040519081016040528093929190818152602001838360200280828437600081840152601f19601f82011690508083019250505050505050600560008a815260200190815260200160002054836111e4565b610b20576040517f08c379a0000000000000000000000000000000000000000000000000000000008152600401610b1790612164565b60405180910390fd5b610b2a878761129a565b600460009054906101000a900473ffffffffffffffffffffffffffffffffffffffff1673ffffffffffffffffffffffffffffffffffffffff1663a9059cbb86866040518363ffffffff1660e01b8152600401610b87929190611f38565b602060405180830381600087803b158015610ba157600080fd5b505af1158015610bb5573d6000803e3d6000fd5b505050506040513d601f19601f82011682018060405250810190610bd99190611f8d565b507fb94bf7f9302edf52a596286915a69b4b0685574cffdedd0712e3c62f2550f0ba87878787604051610c0f9493929190612184565b60405180910390a150505050505050565b600080600084815260200190815260200160002060000160008373ffffffffffffffffffffffffffffffffffffffff1673ffffffffffffffffffffffffffffffffffffffff16815260200190815260200160002060009054906101000a900460ff16905092915050565b6000801b81565b610c9e6000801b33610c20565b610cdd576040517f08c379a0000000000000000000000000000000000000000000000000000000008152600401610cd490612215565b60405180910390fd5b610d077f95ecd50786af45ce6b701c5289aa57cf8909047eb4a0bcdb59129c5ba4ed4ebf8261086e565b50565b610d138261084f565b610d2481610d1f610f7e565b610f86565b610d2e8383611103565b505050565b610d5d7f95ecd50786af45ce6b701c5289aa57cf8909047eb4a0bcdb59129c5ba4ed4ebf33610c20565b610d9c576040517f08c379a0000000000000000000000000000000000000000000000000000000008152600401610d9390611c9d565b60405180910390fd5b8060056000848152602001908152602001600020819055505050565b60008061010083610dc99190612264565b9050600061010084610ddb9190612295565b905060006006600087815260200190815260200160002060008481526020019081526020016000205490506000826001901b9050808183161494505050505092915050565b600260009054906101000a900473ffffffffffffffffffffffffffffffffffffffff1681565b6060600160008381526020019081526020016000206000018054610e6990611d81565b80601f0160208091040260200160405190810160405280929190818152602001828054610e9590611d81565b8015610ee25780601f10610eb757610100808354040283529160200191610ee2565b820191906000526020600020905b815481529060010190602001808311610ec557829003601f168201915b50505050509050919050565b600460009054906101000a900473ffffffffffffffffffffffffffffffffffffffff1681565b60007f01ffc9a7000000000000000000000000000000000000000000000000000000007bffffffffffffffffffffffffffffffffffffffffffffffffffffffff1916827bffffffffffffffffffffffffffffffffffffffffffffffffffffffff1916149050919050565b600033905090565b610f908282610c20565b61101f57610fb58173ffffffffffffffffffffffffffffffffffffffff166014611317565b610fc38360001c6020611317565b604051602001610fd492919061239a565b6040516020818303038152906040526040517f08c379a00000000000000000000000000000000000000000000000000000000081526004016110169190611c05565b60405180910390fd5b5050565b61102d8282610c20565b6110ff57600160008084815260200190815260200160002060000160008373ffffffffffffffffffffffffffffffffffffffff1673ffffffffffffffffffffffffffffffffffffffff16815260200190815260200160002060006101000a81548160ff0219169083151502179055506110a4610f7e565b73ffffffffffffffffffffffffffffffffffffffff168173ffffffffffffffffffffffffffffffffffffffff16837f2f8788117e7eff1d82e926ec794901d17c78024a50270940304540a733656f0d60405160405180910390a45b5050565b61110d8282610c20565b156111e057600080600084815260200190815260200160002060000160008373ffffffffffffffffffffffffffffffffffffffff1673ffffffffffffffffffffffffffffffffffffffff16815260200190815260200160002060006101000a81548160ff021916908315150217905550611185610f7e565b73ffffffffffffffffffffffffffffffffffffffff168173ffffffffffffffffffffffffffffffffffffffff16837ff6391f5c32d9c69d2a47ea670b442974b53935d1edc7fd64eb21e047a839171b60405160405180910390a45b5050565b60008082905060005b855181101561128c57600086828151811061120b5761120a6123d4565b5b6020026020010151905080831161124c57828160405160200161122f929190612424565b604051602081830303815290604052805190602001209250611278565b808360405160200161125f929190612424565b6040516020818303038152906040528051906020012092505b50808061128490612450565b9150506111ed565b508381149150509392505050565b6000610100826112aa9190612264565b90506000610100836112bc9190612295565b9050806001901b60066000868152602001908152602001600020600084815260200190815260200160002054176006600086815260200190815260200160002060008481526020019081526020016000208190555050505050565b60606000600283600261132a9190612499565b6113349190611de2565b67ffffffffffffffff81111561134d5761134c6124f3565b5b6040519080825280601f01601f19166020018201604052801561137f5781602001600182028036833780820191505090505b5090507f3000000000000000000000000000000000000000000000000000000000000000816000815181106113b7576113b66123d4565b5b60200101907effffffffffffffffffffffffffffffffffffffffffffffffffffffffffffff1916908160001a9053507f78000000000000000000000000000000000000000000000000000000000000008160018151811061141b5761141a6123d4565b5b60200101907effffffffffffffffffffffffffffffffffffffffffffffffffffffffffffff1916908160001a9053506000600184600261145b9190612499565b6114659190611de2565b90505b6001811115611505577f3031323334353637383961626364656600000000000000000000000000000000600f8616601081106114a7576114a66123d4565b5b1a60f81b8282815181106114be576114bd6123d4565b5b60200101907effffffffffffffffffffffffffffffffffffffffffffffffffffffffffffff1916908160001a905350600485901c9450806114fe90612522565b9050611468565b5060008414611549576040517f08c379a000000000000000000000000000000000000000000000000000000000815260040161154090612598565b60405180910390fd5b8091505092915050565b82805461155f90611d81565b90600052602060002090601f01602090048101928261158157600085556115c8565b82601f1061159a57805160ff19168380011785556115c8565b828001600101855582156115c8579182015b828111156115c75782518255916020019190600101906115ac565b5b5090506115d591906115d9565b5090565b5b808211156115f25760008160009055506001016115da565b5090565b600080fd5b600080fd5b6000819050919050565b61161381611600565b811461161e57600080fd5b50565b6000813590506116308161160a565b92915050565b6000806040838503121561164d5761164c6115f6565b5b600061165b85828601611621565b925050602061166c85828601611621565b9150509250929050565b60007fffffffff0000000000000000000000000000000000000000000000000000000082169050919050565b6116ab81611676565b81146116b657600080fd5b50565b6000813590506116c8816116a2565b92915050565b6000602082840312156116e4576116e36115f6565b5b60006116f2848285016116b9565b91505092915050565b60008115159050919050565b611710816116fb565b82525050565b600060208201905061172b6000830184611707565b92915050565b61173a81611600565b82525050565b60006020820190506117556000830184611731565b92915050565b600060208284031215611771576117706115f6565b5b600061177f84828501611621565b91505092915050565b600081519050919050565b600082825260208201905092915050565b60005b838110156117c25780820151818401526020810190506117a7565b838111156117d1576000848401525b50505050565b6000601f19601f8301169050919050565b60006117f382611788565b6117fd8185611793565b935061180d8185602086016117a4565b611816816117d7565b840191505092915050565b6000604082019050818103600083015261183b81856117e8565b905061184a6020830184611707565b9392505050565b600080fd5b600080fd5b600080fd5b60008083601f84011261187657611875611851565b5b8235905067ffffffffffffffff81111561189357611892611856565b5b6020830191508360018202830111156118af576118ae61185b565b5b9250929050565b600080602083850312156118cd576118cc6115f6565b5b600083013567ffffffffffffffff8111156118eb576118ea6115fb565b5b6118f785828601611860565b92509250509250929050565b6000819050919050565b61191681611903565b811461192157600080fd5b50565b6000813590506119338161190d565b92915050565b60006020828403121561194f5761194e6115f6565b5b600061195d84828501611924565b91505092915050565b61196f81611903565b82525050565b600060208201905061198a6000830184611966565b92915050565b600073ffffffffffffffffffffffffffffffffffffffff82169050919050565b60006119bb82611990565b9050919050565b6119cb816119b0565b81146119d657600080fd5b50565b6000813590506119e8816119c2565b92915050565b60008060408385031215611a0557611a046115f6565b5b6000611a1385828601611924565b9250506020611a24858286016119d9565b9150509250929050565b60008083601f840112611a4457611a43611851565b5b8235905067ffffffffffffffff811115611a6157611a60611856565b5b602083019150836020820283011115611a7d57611a7c61185b565b5b9250929050565b60008060008060008060a08789031215611aa157611aa06115f6565b5b6000611aaf89828a01611621565b9650506020611ac089828a01611621565b9550506040611ad189828a016119d9565b9450506060611ae289828a01611621565b935050608087013567ffffffffffffffff811115611b0357611b026115fb565b5b611b0f89828a01611a2e565b92509250509295509295509295565b600060208284031215611b3457611b336115f6565b5b6000611b42848285016119d9565b91505092915050565b60008060408385031215611b6257611b616115f6565b5b6000611b7085828601611621565b9250506020611b8185828601611924565b9150509250929050565b6000819050919050565b6000611bb0611bab611ba684611990565b611b8b565b611990565b9050919050565b6000611bc282611b95565b9050919050565b6000611bd482611bb7565b9050919050565b611be481611bc9565b82525050565b6000602082019050611bff6000830184611bdb565b92915050565b60006020820190508181036000830152611c1f81846117e8565b905092915050565b611c30816119b0565b82525050565b6000602082019050611c4b6000830184611c27565b92915050565b7f53414841594f47493a204d555354204245204147454e43590000000000000000600082015250565b6000611c87601883611793565b9150611c9282611c51565b602082019050919050565b60006020820190508181036000830152611cb681611c7a565b9050919050565b7f50726f6a656374206973206e6f7420617661696c61626c650000000000000000600082015250565b6000611cf3601883611793565b9150611cfe82611cbd565b602082019050919050565b60006020820190508181036000830152611d2281611ce6565b9050919050565b6000604082019050611d3e6000830185611731565b611d4b6020830184611731565b9392505050565b7f4e487b7100000000000000000000000000000000000000000000000000000000600052602260045260246000fd5b60006002820490506001821680611d9957607f821691505b60208210811415611dad57611dac611d52565b5b50919050565b7f4e487b7100000000000000000000000000000000000000000000000000000000600052601160045260246000fd5b6000611ded82611600565b9150611df883611600565b9250827fffffffffffffffffffffffffffffffffffffffffffffffffffffffffffffffff03821115611e2d57611e2c611db3565b5b828201905092915050565b82818337600083830152505050565b6000611e538385611793565b9350611e60838584611e38565b611e69836117d7565b840190509392505050565b6000604082019050611e896000830186611731565b8181036020830152611e9c818486611e47565b9050949350505050565b7f416363657373436f6e74726f6c3a2063616e206f6e6c792072656e6f756e636560008201527f20726f6c657320666f722073656c660000000000000000000000000000000000602082015250565b6000611f02602f83611793565b9150611f0d82611ea6565b604082019050919050565b60006020820190508181036000830152611f3181611ef5565b9050919050565b6000604082019050611f4d6000830185611c27565b611f5a6020830184611731565b9392505050565b611f6a816116fb565b8114611f7557600080fd5b50565b600081519050611f8781611f61565b92915050565b600060208284031215611fa357611fa26115f6565b5b6000611fb184828501611f78565b91505092915050565b7f4d65726b6c654469737472696275746f723a2044726f7020616c72656164792060008201527f636c61696d65642e000000000000000000000000000000000000000000000000602082015250565b6000612016602883611793565b915061202182611fba565b604082019050919050565b6000602082019050818103600083015261204581612009565b9050919050565b6000819050919050565b61206761206282611600565b61204c565b82525050565b60008160601b9050919050565b60006120858261206d565b9050919050565b60006120978261207a565b9050919050565b6120af6120aa826119b0565b61208c565b82525050565b60006120c18286612056565b6020820191506120d1828561209e565b6014820191506120e18284612056565b602082019150819050949350505050565b7f4d65726b6c654469737472696275746f723a20496e76616c69642070726f6f6660008201527f2e00000000000000000000000000000000000000000000000000000000000000602082015250565b600061214e602183611793565b9150612159826120f2565b604082019050919050565b6000602082019050818103600083015261217d81612141565b9050919050565b60006080820190506121996000830187611731565b6121a66020830186611731565b6121b36040830185611c27565b6121c06060830184611731565b95945050505050565b7f53414841594f47493a204d5553542042452041444d494e000000000000000000600082015250565b60006121ff601783611793565b915061220a826121c9565b602082019050919050565b6000602082019050818103600083015261222e816121f2565b9050919050565b7f4e487b7100000000000000000000000000000000000000000000000000000000600052601260045260246000fd5b600061226f82611600565b915061227a83611600565b92508261228a57612289612235565b5b828204905092915050565b60006122a082611600565b91506122ab83611600565b9250826122bb576122ba612235565b5b828206905092915050565b600081905092915050565b7f416363657373436f6e74726f6c3a206163636f756e7420000000000000000000600082015250565b60006123076017836122c6565b9150612312826122d1565b601782019050919050565b600061232882611788565b61233281856122c6565b93506123428185602086016117a4565b80840191505092915050565b7f206973206d697373696e6720726f6c6520000000000000000000000000000000600082015250565b60006123846011836122c6565b915061238f8261234e565b601182019050919050565b60006123a5826122fa565b91506123b1828561231d565b91506123bc82612377565b91506123c8828461231d565b91508190509392505050565b7f4e487b7100000000000000000000000000000000000000000000000000000000600052603260045260246000fd5b6000819050919050565b61241e61241982611903565b612403565b82525050565b6000612430828561240d565b602082019150612440828461240d565b6020820191508190509392505050565b600061245b82611600565b91507fffffffffffffffffffffffffffffffffffffffffffffffffffffffffffffffff82141561248e5761248d611db3565b5b600182019050919050565b60006124a482611600565b91506124af83611600565b9250817fffffffffffffffffffffffffffffffffffffffffffffffffffffffffffffffff04831182151516156124e8576124e7611db3565b5b828202905092915050565b7f4e487b7100000000000000000000000000000000000000000000000000000000600052604160045260246000fd5b600061252d82611600565b9150600082141561254157612540611db3565b5b600182039050919050565b7f537472696e67733a20686578206c656e67746820696e73756666696369656e74600082015250565b6000612582602083611793565b915061258d8261254c565b602082019050919050565b600060208201905081810360008301526125b181612575565b905091905056fea2646970667358221220f723df6b79b49b90a981cc1111575654ded36ec26e280419fe76aae1f7e621cc64736f6c63430008090033",
  "immutableReferences": {},
  "source": "// SPDX-License-Identifier: MIT\npragma solidity >=0.4.22 <0.9.0;\n\nimport \"./SahayogiToken.sol\";\nimport \"./FundRaising.sol\";\nimport \"@openzeppelin/contracts/access/AccessControl.sol\";\nimport \"@openzeppelin/contracts/utils/cryptography/MerkleProof.sol\";\nimport \"@openzeppelin/contracts/token/ERC20/IERC20.sol\";\nimport \"./interfaces/IMerkleDistributor.sol\";\nimport \"@openzeppelin/contracts/utils/math/SafeMath.sol\";\n\n\ncontract SahayogiAgency is AccessControl, IMerkleDistributor {\n    using SafeMath for uint256;\n    \n    bytes32 public constant AGENCY_ROLE = keccak256(\"AGENCY\");\n\n    event Create(uint256 projectId, string projectName);\n\n    struct Project {\n        string projectName;\n        bool running;\n    }\n\n    //id=>Project\n    mapping(uint256 => Project) public projects;\n\n    //calling admin contract\n    FundRaising public FundRaisingContract;\n\n    uint256 public count;\n    //address of token\n    // SahayogiToken public token;;\n    address public override token;\n    //projectid=>merkle root\n    mapping(uint256 => bytes32) public override merkleRoot;\n\n    constructor(\n        // SahayogiToken _erc20,\n        address _token,\n        address _FundRaisingContract,\n        address _admin\n    ) {\n        FundRaisingContract = FundRaising(_FundRaisingContract);\n        _setupRole(DEFAULT_ADMIN_ROLE, _admin);\n        token = _token;\n    }\n\n    modifier OnlyAdmin() {\n        require(\n            hasRole(DEFAULT_ADMIN_ROLE, msg.sender),\n            \"SAHAYOGI: MUST BE ADMIN\"\n        );\n        _;\n    }\n    modifier OnlyAgency() {\n        require(hasRole(AGENCY_ROLE, msg.sender), \"SAHAYOGI: MUST BE AGENCY\");\n        _;\n    }\n\n    //add aidAgency\n    function addAgency(address _account) public OnlyAdmin {\n        grantRole(AGENCY_ROLE, _account);\n    }\n\n    //project List\n    //check if project exist or not\n    //assign budgets to project\n\n    //merkle distributor implementaion\n    //diff merkle for different projects\n    //after funding ends fund nikalnu\n\n    //FUNCTIONS\n    function createProject(string calldata _projectName)\n        public\n        OnlyAgency\n        returns (uint256)\n    {\n        count += 1;\n        projects[count] = Project({projectName: _projectName, running: true});\n        emit Create(count, _projectName);\n        return count;\n    }\n\n    function getProjectInfo(uint256 _projectId) public view returns(string memory PROJECTNAME_){\n    return(projects[_projectId].projectName);\n    }\n\n    function claimFunds(uint256 _id, uint256 _projectId) public OnlyAgency {\n        Project storage project = projects[_projectId];\n        require(project.running, \"Project is not available\");\n        return FundRaisingContract.claim(_id, _projectId);\n    }\n\n    //MERKLEDISTRIBUTOR\n\n    // This is a packed array of booleans for verifying the claims.\n    mapping(uint256 => mapping(uint256 => uint256)) private claimedBitMap;\n\n    ///@dev set claim for the given index\n    function _setClaimed(uint256 projectId, uint256 index) internal {\n        uint256 claimedWordIndex = index / 256;\n        uint256 claimedBitIndex = index % 256;\n        claimedBitMap[projectId][claimedWordIndex] =\n            claimedBitMap[projectId][claimedWordIndex] |\n            (1 << claimedBitIndex);\n    }\n\n    ///@dev called by the user to claim the token\n    ///@param index sequential index\n    ///@param account account of the claim address\n    ///@param amount amount of claim\n    ///@param merkleProof merkleProof for the claim of the account\n    function claim(\n        uint256 projectId,\n        uint256 index,\n        address account,\n        uint256 amount,\n        bytes32[] calldata merkleProof\n    ) external override {\n        require(\n            !isClaimed(projectId, index),\n            \"MerkleDistributor: Drop already claimed.\"\n        );\n\n        // Verify the merkle proof.\n        bytes32 node = keccak256(abi.encodePacked(index, account, amount));\n        require(\n            MerkleProof.verify(merkleProof, merkleRoot[projectId], node),\n            \"MerkleDistributor: Invalid proof.\"\n        );\n\n        // Mark it claimed and send the token.\n        _setClaimed(projectId, index);\n        IERC20(token).transfer(account, amount);\n\n        emit Claimed(projectId, index, account, amount);\n    }\n\n    ///@dev look if already claimed or not for the index\n    ///@param index index of the token\n    function isClaimed(uint256 projectId, uint256 index)\n        public\n        view\n        override\n        returns (bool)\n    {\n        uint256 claimedWordIndex = index / 256;\n        uint256 claimedBitIndex = index % 256;\n        uint256 claimedWord = claimedBitMap[projectId][claimedWordIndex];\n        uint256 mask = (1 << claimedBitIndex);\n        return claimedWord & mask == mask;\n    }\n\n    ///@dev update merkle root\n    ///@param _newMerkleRoot new merkle root for the distribution\n    function updateMerkleRoot(uint256 _projectId, bytes32 _newMerkleRoot)\n        external\n        OnlyAgency\n    {\n        merkleRoot[_projectId] = _newMerkleRoot;\n    }\n\n    ///@dev called by the owner of the contract to rescue the token from the contract\n    ///@param amount amount of token to withdraw\n    function withdrawToken(uint256 amount) external {\n        IERC20(token).transfer(msg.sender, amount);\n    }\n}\n",
  "sourcePath": "/home/anisha/Desktop/sahayogi/contracts/SahayogiAgency.sol",
  "compiler": {
    "name": "solc",
    "version": "0.8.9+commit.e5eed63a.Emscripten.clang"
  },
  "schemaVersion": "3.4.4",
  "updatedAt": "2022-04-13T07:21:08.161Z",
  "networkType": "ethereum",
  "devdoc": {
    "kind": "dev",
    "methods": {
      "claim(uint256,uint256,address,uint256,bytes32[])": {
        "details": "called by the user to claim the token",
        "params": {
          "account": "account of the claim address",
          "amount": "amount of claim",
          "index": "sequential index",
          "merkleProof": "merkleProof for the claim of the account"
        }
      },
      "getRoleAdmin(bytes32)": {
        "details": "Returns the admin role that controls `role`. See {grantRole} and {revokeRole}. To change a role's admin, use {_setRoleAdmin}."
      },
      "grantRole(bytes32,address)": {
        "details": "Grants `role` to `account`. If `account` had not been already granted `role`, emits a {RoleGranted} event. Requirements: - the caller must have ``role``'s admin role."
      },
      "hasRole(bytes32,address)": {
        "details": "Returns `true` if `account` has been granted `role`."
      },
      "isClaimed(uint256,uint256)": {
        "details": "look if already claimed or not for the index",
        "params": {
          "index": "index of the token"
        }
      },
      "renounceRole(bytes32,address)": {
        "details": "Revokes `role` from the calling account. Roles are often managed via {grantRole} and {revokeRole}: this function's purpose is to provide a mechanism for accounts to lose their privileges if they are compromised (such as when a trusted device is misplaced). If the calling account had been granted `role`, emits a {RoleRevoked} event. Requirements: - the caller must be `account`."
      },
      "revokeRole(bytes32,address)": {
        "details": "Revokes `role` from `account`. If `account` had been granted `role`, emits a {RoleRevoked} event. Requirements: - the caller must have ``role``'s admin role."
      },
      "supportsInterface(bytes4)": {
        "details": "See {IERC165-supportsInterface}."
      },
      "updateMerkleRoot(uint256,bytes32)": {
        "details": "update merkle root",
        "params": {
          "_newMerkleRoot": "new merkle root for the distribution"
        }
      },
      "withdrawToken(uint256)": {
        "details": "called by the owner of the contract to rescue the token from the contract",
        "params": {
          "amount": "amount of token to withdraw"
        }
      }
    },
    "version": 1
  },
  "userdoc": {
    "kind": "user",
    "methods": {},
    "version": 1
  }
}