{
  "contractName": "SahayogiAgency",
  "abi": [
    {
      "inputs": [
        {
          "internalType": "contract SahayogiToken",
          "name": "_erc20",
          "type": "address"
        },
        {
          "internalType": "address",
          "name": "_FundRaisingContract",
          "type": "address"
        },
        {
          "internalType": "address",
          "name": "_admin",
          "type": "address"
        }
      ],
      "stateMutability": "nonpayable",
      "type": "constructor"
    },
    {
      "anonymous": false,
      "inputs": [
        {
          "indexed": false,
          "internalType": "uint256",
          "name": "projectId",
          "type": "uint256"
        },
        {
          "indexed": false,
          "internalType": "uint256",
          "name": "index",
          "type": "uint256"
        },
        {
          "indexed": false,
          "internalType": "address",
          "name": "account",
          "type": "address"
        },
        {
          "indexed": false,
          "internalType": "uint256",
          "name": "amount",
          "type": "uint256"
        }
      ],
      "name": "Claimed",
      "type": "event"
    },
    {
      "anonymous": false,
      "inputs": [
        {
          "indexed": false,
          "internalType": "uint256",
          "name": "projectId",
          "type": "uint256"
        },
        {
          "indexed": false,
          "internalType": "string",
          "name": "projectName",
          "type": "string"
        }
      ],
      "name": "Create",
      "type": "event"
    },
    {
      "anonymous": false,
      "inputs": [
        {
          "indexed": true,
          "internalType": "bytes32",
          "name": "role",
          "type": "bytes32"
        },
        {
          "indexed": true,
          "internalType": "bytes32",
          "name": "previousAdminRole",
          "type": "bytes32"
        },
        {
          "indexed": true,
          "internalType": "bytes32",
          "name": "newAdminRole",
          "type": "bytes32"
        }
      ],
      "name": "RoleAdminChanged",
      "type": "event"
    },
    {
      "anonymous": false,
      "inputs": [
        {
          "indexed": true,
          "internalType": "bytes32",
          "name": "role",
          "type": "bytes32"
        },
        {
          "indexed": true,
          "internalType": "address",
          "name": "account",
          "type": "address"
        },
        {
          "indexed": true,
          "internalType": "address",
          "name": "sender",
          "type": "address"
        }
      ],
      "name": "RoleGranted",
      "type": "event"
    },
    {
      "anonymous": false,
      "inputs": [
        {
          "indexed": true,
          "internalType": "bytes32",
          "name": "role",
          "type": "bytes32"
        },
        {
          "indexed": true,
          "internalType": "address",
          "name": "account",
          "type": "address"
        },
        {
          "indexed": true,
          "internalType": "address",
          "name": "sender",
          "type": "address"
        }
      ],
      "name": "RoleRevoked",
      "type": "event"
    },
    {
      "anonymous": false,
      "inputs": [
        {
          "indexed": false,
          "internalType": "uint256",
          "name": "projectId",
          "type": "uint256"
        },
        {
          "indexed": false,
          "internalType": "uint256",
          "name": "updatedFunds",
          "type": "uint256"
        }
      ],
      "name": "Update",
      "type": "event"
    },
    {
      "inputs": [],
      "name": "AGENCY_ROLE",
      "outputs": [
        {
          "internalType": "bytes32",
          "name": "",
          "type": "bytes32"
        }
      ],
      "stateMutability": "view",
      "type": "function",
      "constant": true
    },
    {
      "inputs": [],
      "name": "DEFAULT_ADMIN_ROLE",
      "outputs": [
        {
          "internalType": "bytes32",
          "name": "",
          "type": "bytes32"
        }
      ],
      "stateMutability": "view",
      "type": "function",
      "constant": true
    },
    {
      "inputs": [],
      "name": "FundRaisingContract",
      "outputs": [
        {
          "internalType": "contract FundRaising",
          "name": "",
          "type": "address"
        }
      ],
      "stateMutability": "view",
      "type": "function",
      "constant": true
    },
    {
      "inputs": [],
      "name": "bank",
      "outputs": [
        {
          "internalType": "address",
          "name": "",
          "type": "address"
        }
      ],
      "stateMutability": "view",
      "type": "function",
      "constant": true
    },
    {
      "inputs": [],
      "name": "count",
      "outputs": [
        {
          "internalType": "uint256",
          "name": "",
          "type": "uint256"
        }
      ],
      "stateMutability": "view",
      "type": "function",
      "constant": true
    },
    {
      "inputs": [],
      "name": "erc20",
      "outputs": [
        {
          "internalType": "contract SahayogiToken",
          "name": "",
          "type": "address"
        }
      ],
      "stateMutability": "view",
      "type": "function",
      "constant": true
    },
    {
      "inputs": [
        {
          "internalType": "uint256",
          "name": "",
          "type": "uint256"
        }
      ],
      "name": "fundedAmount",
      "outputs": [
        {
          "internalType": "uint256",
          "name": "",
          "type": "uint256"
        }
      ],
      "stateMutability": "view",
      "type": "function",
      "constant": true
    },
    {
      "inputs": [
        {
          "internalType": "bytes32",
          "name": "role",
          "type": "bytes32"
        }
      ],
      "name": "getRoleAdmin",
      "outputs": [
        {
          "internalType": "bytes32",
          "name": "",
          "type": "bytes32"
        }
      ],
      "stateMutability": "view",
      "type": "function",
      "constant": true
    },
    {
      "inputs": [
        {
          "internalType": "bytes32",
          "name": "role",
          "type": "bytes32"
        },
        {
          "internalType": "address",
          "name": "account",
          "type": "address"
        }
      ],
      "name": "grantRole",
      "outputs": [],
      "stateMutability": "nonpayable",
      "type": "function"
    },
    {
      "inputs": [
        {
          "internalType": "bytes32",
          "name": "role",
          "type": "bytes32"
        },
        {
          "internalType": "address",
          "name": "account",
          "type": "address"
        }
      ],
      "name": "hasRole",
      "outputs": [
        {
          "internalType": "bool",
          "name": "",
          "type": "bool"
        }
      ],
      "stateMutability": "view",
      "type": "function",
      "constant": true
    },
    {
      "inputs": [
        {
          "internalType": "uint256",
          "name": "",
          "type": "uint256"
        }
      ],
      "name": "merkleRoot",
      "outputs": [
        {
          "internalType": "bytes32",
          "name": "",
          "type": "bytes32"
        }
      ],
      "stateMutability": "view",
      "type": "function",
      "constant": true
    },
    {
      "inputs": [
        {
          "internalType": "uint256",
          "name": "",
          "type": "uint256"
        }
      ],
      "name": "projects",
      "outputs": [
        {
          "internalType": "string",
          "name": "projectName",
          "type": "string"
        },
        {
          "internalType": "uint256",
          "name": "updatedFunds",
          "type": "uint256"
        },
        {
          "internalType": "bool",
          "name": "running",
          "type": "bool"
        }
      ],
      "stateMutability": "view",
      "type": "function",
      "constant": true
    },
    {
      "inputs": [
        {
          "internalType": "bytes32",
          "name": "role",
          "type": "bytes32"
        },
        {
          "internalType": "address",
          "name": "account",
          "type": "address"
        }
      ],
      "name": "renounceRole",
      "outputs": [],
      "stateMutability": "nonpayable",
      "type": "function"
    },
    {
      "inputs": [
        {
          "internalType": "bytes32",
          "name": "role",
          "type": "bytes32"
        },
        {
          "internalType": "address",
          "name": "account",
          "type": "address"
        }
      ],
      "name": "revokeRole",
      "outputs": [],
      "stateMutability": "nonpayable",
      "type": "function"
    },
    {
      "inputs": [
        {
          "internalType": "bytes4",
          "name": "interfaceId",
          "type": "bytes4"
        }
      ],
      "name": "supportsInterface",
      "outputs": [
        {
          "internalType": "bool",
          "name": "",
          "type": "bool"
        }
      ],
      "stateMutability": "view",
      "type": "function",
      "constant": true
    },
    {
      "inputs": [
        {
          "internalType": "address",
          "name": "_account",
          "type": "address"
        }
      ],
      "name": "addAgency",
      "outputs": [],
      "stateMutability": "nonpayable",
      "type": "function"
    },
    {
      "inputs": [
        {
          "internalType": "string",
          "name": "_projectName",
          "type": "string"
        }
      ],
      "name": "createProject",
      "outputs": [],
      "stateMutability": "nonpayable",
      "type": "function"
    },
    {
      "inputs": [
        {
          "internalType": "uint256",
          "name": "_projectId",
          "type": "uint256"
        },
        {
          "internalType": "uint256",
          "name": "_amount",
          "type": "uint256"
        }
      ],
      "name": "updateFund",
      "outputs": [],
      "stateMutability": "nonpayable",
      "type": "function"
    },
    {
      "inputs": [
        {
          "internalType": "uint256",
          "name": "_id",
          "type": "uint256"
        },
        {
          "internalType": "uint256",
          "name": "_projectId",
          "type": "uint256"
        }
      ],
      "name": "claimFunds",
      "outputs": [],
      "stateMutability": "nonpayable",
      "type": "function"
    },
    {
      "inputs": [
        {
          "internalType": "uint256",
          "name": "productId",
          "type": "uint256"
        },
        {
          "internalType": "uint256",
          "name": "index",
          "type": "uint256"
        },
        {
          "internalType": "address",
          "name": "account",
          "type": "address"
        },
        {
          "internalType": "uint256",
          "name": "amount",
          "type": "uint256"
        },
        {
          "internalType": "bytes32[]",
          "name": "merkleProof",
          "type": "bytes32[]"
        }
      ],
      "name": "claim",
      "outputs": [],
      "stateMutability": "nonpayable",
      "type": "function"
    },
    {
      "inputs": [
        {
          "internalType": "uint256",
          "name": "productId",
          "type": "uint256"
        },
        {
          "internalType": "uint256",
          "name": "index",
          "type": "uint256"
        }
      ],
      "name": "isClaimed",
      "outputs": [
        {
          "internalType": "bool",
          "name": "",
          "type": "bool"
        }
      ],
      "stateMutability": "view",
      "type": "function",
      "constant": true
    },
    {
      "inputs": [
        {
          "internalType": "uint256",
          "name": "_projectId",
          "type": "uint256"
        },
        {
          "internalType": "bytes32",
          "name": "_newMerkleRoot",
          "type": "bytes32"
        }
      ],
      "name": "updateMerkleRoot",
      "outputs": [],
      "stateMutability": "nonpayable",
      "type": "function"
    },
    {
      "inputs": [
        {
          "internalType": "uint256",
          "name": "amount",
          "type": "uint256"
        }
      ],
      "name": "withdrawToken",
      "outputs": [],
      "stateMutability": "nonpayable",
      "type": "function"
    }
  ],
  "bytecode": "0x60806040523480156200001157600080fd5b5060405162002c1638038062002c16833981810160405281019062000037919062000354565b730a098eda01ce92ff4a4ccb7a4fffb5a43ebc70dc600460006101000a81548173ffffffffffffffffffffffffffffffffffffffff021916908373ffffffffffffffffffffffffffffffffffffffff16021790555081600260006101000a81548173ffffffffffffffffffffffffffffffffffffffff021916908373ffffffffffffffffffffffffffffffffffffffff160217905550620000e26000801b826200012c60201b60201c565b82600560006101000a81548173ffffffffffffffffffffffffffffffffffffffff021916908373ffffffffffffffffffffffffffffffffffffffff160217905550505050620003b0565b6200013e82826200014260201b60201c565b5050565b6200015482826200023360201b60201c565b6200022f57600160008084815260200190815260200160002060000160008373ffffffffffffffffffffffffffffffffffffffff1673ffffffffffffffffffffffffffffffffffffffff16815260200190815260200160002060006101000a81548160ff021916908315150217905550620001d46200029d60201b60201c565b73ffffffffffffffffffffffffffffffffffffffff168173ffffffffffffffffffffffffffffffffffffffff16837f2f8788117e7eff1d82e926ec794901d17c78024a50270940304540a733656f0d60405160405180910390a45b5050565b600080600084815260200190815260200160002060000160008373ffffffffffffffffffffffffffffffffffffffff1673ffffffffffffffffffffffffffffffffffffffff16815260200190815260200160002060009054906101000a900460ff16905092915050565b600033905090565b600080fd5b600073ffffffffffffffffffffffffffffffffffffffff82169050919050565b6000620002d782620002aa565b9050919050565b6000620002eb82620002ca565b9050919050565b620002fd81620002de565b81146200030957600080fd5b50565b6000815190506200031d81620002f2565b92915050565b6200032e81620002ca565b81146200033a57600080fd5b50565b6000815190506200034e8162000323565b92915050565b60008060006060848603121562000370576200036f620002a5565b5b600062000380868287016200030c565b935050602062000393868287016200033d565b9250506040620003a6868287016200033d565b9150509250925092565b61285680620003c06000396000f3fe608060405234801561001057600080fd5b506004361061014d5760003560e01c80634d0adefd116100c3578063a217fddf1161007c578063a217fddf146103b0578063b6daea6c146103ce578063d547741f146103ea578063f1e3311514610406578063f364c90c14610422578063f81fb4dd146104525761014d565b80634d0adefd146102ee57806350baa6221461030c5780635d4df3bf1461032857806376cdb03b14610344578063785e9e861461036257806391d14854146103805761014d565b806315ee4df11161011557806315ee4df11461021e578063248a9ca31461023a5780632b98fd321461026a5780632f2ff15d1461028657806336568abe146102a25780633c70b357146102be5761014d565b8063010b58ee1461015257806301ffc9a71461016e57806306661abd1461019e578063068fcd9a146101bc578063107046bd146101ec575b600080fd5b61016c6004803603810190610167919061181d565b610470565b005b610188600480360381019061018391906118b5565b6105d5565b60405161019591906118fd565b60405180910390f35b6101a661064f565b6040516101b39190611927565b60405180910390f35b6101d660048036038101906101d19190611942565b610655565b6040516101e39190611927565b60405180910390f35b61020660048036038101906102019190611942565b61066d565b60405161021593929190611a08565b60405180910390f35b61023860048036038101906102339190611aab565b61072c565b005b610254600480360381019061024f9190611b2e565b6108b2565b6040516102619190611b6a565b60405180910390f35b610284600480360381019061027f919061181d565b6108d1565b005b6102a0600480360381019061029b9190611be3565b610ad7565b005b6102bc60048036038101906102b79190611be3565b610b00565b005b6102d860048036038101906102d39190611942565b610b83565b6040516102e59190611b6a565b60405180910390f35b6102f6610b9b565b6040516103039190611b6a565b60405180910390f35b61032660048036038101906103219190611942565b610bbf565b005b610342600480360381019061033d9190611c79565b610c72565b005b61034c610e89565b6040516103599190611d22565b60405180910390f35b61036a610eaf565b6040516103779190611d9c565b60405180910390f35b61039a60048036038101906103959190611be3565b610ed5565b6040516103a791906118fd565b60405180910390f35b6103b8610f3f565b6040516103c59190611b6a565b60405180910390f35b6103e860048036038101906103e39190611db7565b610f46565b005b61040460048036038101906103ff9190611be3565b610fbf565b005b610420600480360381019061041b9190611de4565b610fe8565b005b61043c6004803603810190610437919061181d565b61106d565b60405161044991906118fd565b60405180910390f35b61045a6110d5565b6040516104679190611e45565b60405180910390f35b61049a7f95ecd50786af45ce6b701c5289aa57cf8909047eb4a0bcdb59129c5ba4ed4ebf33610ed5565b6104d9576040517f08c379a00000000000000000000000000000000000000000000000000000000081526004016104d090611eac565b60405180910390fd5b60006001600083815260200190815260200160002090508060020160009054906101000a900460ff16610541576040517f08c379a000000000000000000000000000000000000000000000000000000000815260040161053890611f18565b60405180910390fd5b600260009054906101000a900473ffffffffffffffffffffffffffffffffffffffff1673ffffffffffffffffffffffffffffffffffffffff1663c349026384846040518363ffffffff1660e01b815260040161059e929190611f38565b600060405180830381600087803b1580156105b857600080fd5b505af11580156105cc573d6000803e3d6000fd5b50505050505050565b60007f7965db0b000000000000000000000000000000000000000000000000000000007bffffffffffffffffffffffffffffffffffffffffffffffffffffffff1916827bffffffffffffffffffffffffffffffffffffffffffffffffffffffff191614806106485750610647826110fb565b5b9050919050565b60035481565b60066020528060005260406000206000915090505481565b600160205280600052604060002060009150905080600001805461069090611f90565b80601f01602080910402602001604051908101604052809291908181526020018280546106bc90611f90565b80156107095780601f106106de57610100808354040283529160200191610709565b820191906000526020600020905b8154815290600101906020018083116106ec57829003601f168201915b5050505050908060010154908060020160009054906101000a900460ff16905083565b6107567f95ecd50786af45ce6b701c5289aa57cf8909047eb4a0bcdb59129c5ba4ed4ebf33610ed5565b610795576040517f08c379a000000000000000000000000000000000000000000000000000000000815260040161078c90611eac565b60405180910390fd5b6001600360008282546107a89190611ff1565b92505081905550604051806060016040528083838080601f016020809104026020016040519081016040528093929190818152602001838380828437600081840152601f19601f8201169050808301925050505050505081526020016000815260200160011515815250600160006003548152602001908152602001600020600082015181600001908051906020019061084392919061173a565b506020820151816001015560408201518160020160006101000a81548160ff0219169083151502179055509050507fbba37318c149b1db7d49c422b47f2a61ba899714cb9c7377168ec21d7edfaae160035483836040516108a693929190612083565b60405180910390a15050565b6000806000838152602001908152602001600020600101549050919050565b6108fb7f95ecd50786af45ce6b701c5289aa57cf8909047eb4a0bcdb59129c5ba4ed4ebf33610ed5565b61093a576040517f08c379a000000000000000000000000000000000000000000000000000000000815260040161093190611eac565b60405180910390fd5b60006001600084815260200190815260200160002090508060020160009054906101000a900460ff166109a2576040517f08c379a000000000000000000000000000000000000000000000000000000000815260040161099990611f18565b60405180910390fd5b818160010160008282546109b69190611ff1565b92505081905550816006600085815260200190815260200160002060008282546109e09190611ff1565b92505081905550600560009054906101000a900473ffffffffffffffffffffffffffffffffffffffff1673ffffffffffffffffffffffffffffffffffffffff166323b872dd3330856040518463ffffffff1660e01b8152600401610a46939291906120b5565b602060405180830381600087803b158015610a6057600080fd5b505af1158015610a74573d6000803e3d6000fd5b505050506040513d601f19601f82011682018060405250810190610a989190612118565b507f8ecf343d22d1934aea3fb34b7332371552b19286c5bc696adae16c7690a90d548383604051610aca929190611f38565b60405180910390a1505050565b610ae0826108b2565b610af181610aec611165565b61116d565b610afb838361120a565b505050565b610b08611165565b73ffffffffffffffffffffffffffffffffffffffff168173ffffffffffffffffffffffffffffffffffffffff1614610b75576040517f08c379a0000000000000000000000000000000000000000000000000000000008152600401610b6c906121b7565b60405180910390fd5b610b7f82826112ea565b5050565b60076020528060005260406000206000915090505481565b7f95ecd50786af45ce6b701c5289aa57cf8909047eb4a0bcdb59129c5ba4ed4ebf81565b600560009054906101000a900473ffffffffffffffffffffffffffffffffffffffff1673ffffffffffffffffffffffffffffffffffffffff1663a9059cbb33836040518363ffffffff1660e01b8152600401610c1c9291906121d7565b602060405180830381600087803b158015610c3657600080fd5b505af1158015610c4a573d6000803e3d6000fd5b505050506040513d601f19601f82011682018060405250810190610c6e9190612118565b5050565b610c7c868661106d565b15610cbc576040517f08c379a0000000000000000000000000000000000000000000000000000000008152600401610cb390612272565b60405180910390fd5b6000858585604051602001610cd3939291906122fb565b604051602081830303815290604052805190602001209050610d4a838380806020026020016040519081016040528093929190818152602001838360200280828437600081840152601f19601f82011690508083019250505050505050600760008a815260200190815260200160002054836113cb565b610d89576040517f08c379a0000000000000000000000000000000000000000000000000000000008152600401610d80906123aa565b60405180910390fd5b610d938787611481565b600560009054906101000a900473ffffffffffffffffffffffffffffffffffffffff1673ffffffffffffffffffffffffffffffffffffffff1663a9059cbb86866040518363ffffffff1660e01b8152600401610df09291906121d7565b602060405180830381600087803b158015610e0a57600080fd5b505af1158015610e1e573d6000803e3d6000fd5b505050506040513d601f19601f82011682018060405250810190610e429190612118565b507fb94bf7f9302edf52a596286915a69b4b0685574cffdedd0712e3c62f2550f0ba87878787604051610e7894939291906123ca565b60405180910390a150505050505050565b600460009054906101000a900473ffffffffffffffffffffffffffffffffffffffff1681565b600560009054906101000a900473ffffffffffffffffffffffffffffffffffffffff1681565b600080600084815260200190815260200160002060000160008373ffffffffffffffffffffffffffffffffffffffff1673ffffffffffffffffffffffffffffffffffffffff16815260200190815260200160002060009054906101000a900460ff16905092915050565b6000801b81565b610f536000801b33610ed5565b610f92576040517f08c379a0000000000000000000000000000000000000000000000000000000008152600401610f899061245b565b60405180910390fd5b610fbc7f95ecd50786af45ce6b701c5289aa57cf8909047eb4a0bcdb59129c5ba4ed4ebf82610ad7565b50565b610fc8826108b2565b610fd981610fd4611165565b61116d565b610fe383836112ea565b505050565b6110127f95ecd50786af45ce6b701c5289aa57cf8909047eb4a0bcdb59129c5ba4ed4ebf33610ed5565b611051576040517f08c379a000000000000000000000000000000000000000000000000000000000815260040161104890611eac565b60405180910390fd5b8060076000848152602001908152602001600020819055505050565b6000806101008361107e91906124aa565b905060006101008461109091906124db565b905060006008600087815260200190815260200160002060008481526020019081526020016000205490506000826001901b9050808183161494505050505092915050565b600260009054906101000a900473ffffffffffffffffffffffffffffffffffffffff1681565b60007f01ffc9a7000000000000000000000000000000000000000000000000000000007bffffffffffffffffffffffffffffffffffffffffffffffffffffffff1916827bffffffffffffffffffffffffffffffffffffffffffffffffffffffff1916149050919050565b600033905090565b6111778282610ed5565b6112065761119c8173ffffffffffffffffffffffffffffffffffffffff1660146114fe565b6111aa8360001c60206114fe565b6040516020016111bb9291906125e0565b6040516020818303038152906040526040517f08c379a00000000000000000000000000000000000000000000000000000000081526004016111fd919061261a565b60405180910390fd5b5050565b6112148282610ed5565b6112e657600160008084815260200190815260200160002060000160008373ffffffffffffffffffffffffffffffffffffffff1673ffffffffffffffffffffffffffffffffffffffff16815260200190815260200160002060006101000a81548160ff02191690831515021790555061128b611165565b73ffffffffffffffffffffffffffffffffffffffff168173ffffffffffffffffffffffffffffffffffffffff16837f2f8788117e7eff1d82e926ec794901d17c78024a50270940304540a733656f0d60405160405180910390a45b5050565b6112f48282610ed5565b156113c757600080600084815260200190815260200160002060000160008373ffffffffffffffffffffffffffffffffffffffff1673ffffffffffffffffffffffffffffffffffffffff16815260200190815260200160002060006101000a81548160ff02191690831515021790555061136c611165565b73ffffffffffffffffffffffffffffffffffffffff168173ffffffffffffffffffffffffffffffffffffffff16837ff6391f5c32d9c69d2a47ea670b442974b53935d1edc7fd64eb21e047a839171b60405160405180910390a45b5050565b60008082905060005b85518110156114735760008682815181106113f2576113f161263c565b5b6020026020010151905080831161143357828160405160200161141692919061268c565b60405160208183030381529060405280519060200120925061145f565b808360405160200161144692919061268c565b6040516020818303038152906040528051906020012092505b50808061146b906126b8565b9150506113d4565b508381149150509392505050565b60006101008261149191906124aa565b90506000610100836114a391906124db565b9050806001901b60086000868152602001908152602001600020600084815260200190815260200160002054176008600086815260200190815260200160002060008481526020019081526020016000208190555050505050565b6060600060028360026115119190612701565b61151b9190611ff1565b67ffffffffffffffff8111156115345761153361275b565b5b6040519080825280601f01601f1916602001820160405280156115665781602001600182028036833780820191505090505b5090507f30000000000000000000000000000000000000000000000000000000000000008160008151811061159e5761159d61263c565b5b60200101907effffffffffffffffffffffffffffffffffffffffffffffffffffffffffffff1916908160001a9053507f7800000000000000000000000000000000000000000000000000000000000000816001815181106116025761160161263c565b5b60200101907effffffffffffffffffffffffffffffffffffffffffffffffffffffffffffff1916908160001a905350600060018460026116429190612701565b61164c9190611ff1565b90505b60018111156116ec577f3031323334353637383961626364656600000000000000000000000000000000600f86166010811061168e5761168d61263c565b5b1a60f81b8282815181106116a5576116a461263c565b5b60200101907effffffffffffffffffffffffffffffffffffffffffffffffffffffffffffff1916908160001a905350600485901c9450806116e59061278a565b905061164f565b5060008414611730576040517f08c379a000000000000000000000000000000000000000000000000000000000815260040161172790612800565b60405180910390fd5b8091505092915050565b82805461174690611f90565b90600052602060002090601f01602090048101928261176857600085556117af565b82601f1061178157805160ff19168380011785556117af565b828001600101855582156117af579182015b828111156117ae578251825591602001919060010190611793565b5b5090506117bc91906117c0565b5090565b5b808211156117d95760008160009055506001016117c1565b5090565b600080fd5b600080fd5b6000819050919050565b6117fa816117e7565b811461180557600080fd5b50565b600081359050611817816117f1565b92915050565b60008060408385031215611834576118336117dd565b5b600061184285828601611808565b925050602061185385828601611808565b9150509250929050565b60007fffffffff0000000000000000000000000000000000000000000000000000000082169050919050565b6118928161185d565b811461189d57600080fd5b50565b6000813590506118af81611889565b92915050565b6000602082840312156118cb576118ca6117dd565b5b60006118d9848285016118a0565b91505092915050565b60008115159050919050565b6118f7816118e2565b82525050565b600060208201905061191260008301846118ee565b92915050565b611921816117e7565b82525050565b600060208201905061193c6000830184611918565b92915050565b600060208284031215611958576119576117dd565b5b600061196684828501611808565b91505092915050565b600081519050919050565b600082825260208201905092915050565b60005b838110156119a957808201518184015260208101905061198e565b838111156119b8576000848401525b50505050565b6000601f19601f8301169050919050565b60006119da8261196f565b6119e4818561197a565b93506119f481856020860161198b565b6119fd816119be565b840191505092915050565b60006060820190508181036000830152611a2281866119cf565b9050611a316020830185611918565b611a3e60408301846118ee565b949350505050565b600080fd5b600080fd5b600080fd5b60008083601f840112611a6b57611a6a611a46565b5b8235905067ffffffffffffffff811115611a8857611a87611a4b565b5b602083019150836001820283011115611aa457611aa3611a50565b5b9250929050565b60008060208385031215611ac257611ac16117dd565b5b600083013567ffffffffffffffff811115611ae057611adf6117e2565b5b611aec85828601611a55565b92509250509250929050565b6000819050919050565b611b0b81611af8565b8114611b1657600080fd5b50565b600081359050611b2881611b02565b92915050565b600060208284031215611b4457611b436117dd565b5b6000611b5284828501611b19565b91505092915050565b611b6481611af8565b82525050565b6000602082019050611b7f6000830184611b5b565b92915050565b600073ffffffffffffffffffffffffffffffffffffffff82169050919050565b6000611bb082611b85565b9050919050565b611bc081611ba5565b8114611bcb57600080fd5b50565b600081359050611bdd81611bb7565b92915050565b60008060408385031215611bfa57611bf96117dd565b5b6000611c0885828601611b19565b9250506020611c1985828601611bce565b9150509250929050565b60008083601f840112611c3957611c38611a46565b5b8235905067ffffffffffffffff811115611c5657611c55611a4b565b5b602083019150836020820283011115611c7257611c71611a50565b5b9250929050565b60008060008060008060a08789031215611c9657611c956117dd565b5b6000611ca489828a01611808565b9650506020611cb589828a01611808565b9550506040611cc689828a01611bce565b9450506060611cd789828a01611808565b935050608087013567ffffffffffffffff811115611cf857611cf76117e2565b5b611d0489828a01611c23565b92509250509295509295509295565b611d1c81611ba5565b82525050565b6000602082019050611d376000830184611d13565b92915050565b6000819050919050565b6000611d62611d5d611d5884611b85565b611d3d565b611b85565b9050919050565b6000611d7482611d47565b9050919050565b6000611d8682611d69565b9050919050565b611d9681611d7b565b82525050565b6000602082019050611db16000830184611d8d565b92915050565b600060208284031215611dcd57611dcc6117dd565b5b6000611ddb84828501611bce565b91505092915050565b60008060408385031215611dfb57611dfa6117dd565b5b6000611e0985828601611808565b9250506020611e1a85828601611b19565b9150509250929050565b6000611e2f82611d69565b9050919050565b611e3f81611e24565b82525050565b6000602082019050611e5a6000830184611e36565b92915050565b7f53414841594f47493a204d555354204245204147454e43590000000000000000600082015250565b6000611e9660188361197a565b9150611ea182611e60565b602082019050919050565b60006020820190508181036000830152611ec581611e89565b9050919050565b7f50726f6a656374206973206e6f7420617661696c61626c650000000000000000600082015250565b6000611f0260188361197a565b9150611f0d82611ecc565b602082019050919050565b60006020820190508181036000830152611f3181611ef5565b9050919050565b6000604082019050611f4d6000830185611918565b611f5a6020830184611918565b9392505050565b7f4e487b7100000000000000000000000000000000000000000000000000000000600052602260045260246000fd5b60006002820490506001821680611fa857607f821691505b60208210811415611fbc57611fbb611f61565b5b50919050565b7f4e487b7100000000000000000000000000000000000000000000000000000000600052601160045260246000fd5b6000611ffc826117e7565b9150612007836117e7565b9250827fffffffffffffffffffffffffffffffffffffffffffffffffffffffffffffffff0382111561203c5761203b611fc2565b5b828201905092915050565b82818337600083830152505050565b6000612062838561197a565b935061206f838584612047565b612078836119be565b840190509392505050565b60006040820190506120986000830186611918565b81810360208301526120ab818486612056565b9050949350505050565b60006060820190506120ca6000830186611d13565b6120d76020830185611d13565b6120e46040830184611918565b949350505050565b6120f5816118e2565b811461210057600080fd5b50565b600081519050612112816120ec565b92915050565b60006020828403121561212e5761212d6117dd565b5b600061213c84828501612103565b91505092915050565b7f416363657373436f6e74726f6c3a2063616e206f6e6c792072656e6f756e636560008201527f20726f6c657320666f722073656c660000000000000000000000000000000000602082015250565b60006121a1602f8361197a565b91506121ac82612145565b604082019050919050565b600060208201905081810360008301526121d081612194565b9050919050565b60006040820190506121ec6000830185611d13565b6121f96020830184611918565b9392505050565b7f4d65726b6c654469737472696275746f723a2044726f7020616c72656164792060008201527f636c61696d65642e000000000000000000000000000000000000000000000000602082015250565b600061225c60288361197a565b915061226782612200565b604082019050919050565b6000602082019050818103600083015261228b8161224f565b9050919050565b6000819050919050565b6122ad6122a8826117e7565b612292565b82525050565b60008160601b9050919050565b60006122cb826122b3565b9050919050565b60006122dd826122c0565b9050919050565b6122f56122f082611ba5565b6122d2565b82525050565b6000612307828661229c565b60208201915061231782856122e4565b601482019150612327828461229c565b602082019150819050949350505050565b7f4d65726b6c654469737472696275746f723a20496e76616c69642070726f6f6660008201527f2e00000000000000000000000000000000000000000000000000000000000000602082015250565b600061239460218361197a565b915061239f82612338565b604082019050919050565b600060208201905081810360008301526123c381612387565b9050919050565b60006080820190506123df6000830187611918565b6123ec6020830186611918565b6123f96040830185611d13565b6124066060830184611918565b95945050505050565b7f53414841594f47493a204d5553542042452041444d494e000000000000000000600082015250565b600061244560178361197a565b91506124508261240f565b602082019050919050565b6000602082019050818103600083015261247481612438565b9050919050565b7f4e487b7100000000000000000000000000000000000000000000000000000000600052601260045260246000fd5b60006124b5826117e7565b91506124c0836117e7565b9250826124d0576124cf61247b565b5b828204905092915050565b60006124e6826117e7565b91506124f1836117e7565b9250826125015761250061247b565b5b828206905092915050565b600081905092915050565b7f416363657373436f6e74726f6c3a206163636f756e7420000000000000000000600082015250565b600061254d60178361250c565b915061255882612517565b601782019050919050565b600061256e8261196f565b612578818561250c565b935061258881856020860161198b565b80840191505092915050565b7f206973206d697373696e6720726f6c6520000000000000000000000000000000600082015250565b60006125ca60118361250c565b91506125d582612594565b601182019050919050565b60006125eb82612540565b91506125f78285612563565b9150612602826125bd565b915061260e8284612563565b91508190509392505050565b6000602082019050818103600083015261263481846119cf565b905092915050565b7f4e487b7100000000000000000000000000000000000000000000000000000000600052603260045260246000fd5b6000819050919050565b61268661268182611af8565b61266b565b82525050565b60006126988285612675565b6020820191506126a88284612675565b6020820191508190509392505050565b60006126c3826117e7565b91507fffffffffffffffffffffffffffffffffffffffffffffffffffffffffffffffff8214156126f6576126f5611fc2565b5b600182019050919050565b600061270c826117e7565b9150612717836117e7565b9250817fffffffffffffffffffffffffffffffffffffffffffffffffffffffffffffffff04831182151516156127505761274f611fc2565b5b828202905092915050565b7f4e487b7100000000000000000000000000000000000000000000000000000000600052604160045260246000fd5b6000612795826117e7565b915060008214156127a9576127a8611fc2565b5b600182039050919050565b7f537472696e67733a20686578206c656e67746820696e73756666696369656e74600082015250565b60006127ea60208361197a565b91506127f5826127b4565b602082019050919050565b60006020820190508181036000830152612819816127dd565b905091905056fea2646970667358221220a9753189debabe49b8acd3c874f7132b6e24a8999b9217c91f2e770d53bde60464736f6c63430008090033",
  "immutableReferences": {},
  "source": "// SPDX-License-Identifier: MIT\npragma solidity >=0.4.22 <0.9.0;\n\nimport \"./SahayogiToken.sol\";\nimport \"./FundRaising.sol\";\nimport \"@openzeppelin/contracts/access/AccessControl.sol\";\nimport \"@openzeppelin/contracts/utils/cryptography/MerkleProof.sol\";\nimport \"@openzeppelin/contracts/token/ERC20/IERC20.sol\";\nimport \"./interfaces/IMerkleDistributor.sol\";\n\n\ncontract SahayogiAgency is AccessControl, IMerkleDistributor {\n\n  bytes32 public constant AGENCY_ROLE = keccak256(\"AGENCY\");\n\n   event Create(\n       uint256 projectId,\n       string projectName\n  \n   );\n   event Update (\n       uint256 projectId,\n       uint256 updatedFunds\n   );\n\n    struct Project {\n        \n        string  projectName;\n        // address[] vendor;\n        // uint256 initialFund;\n        uint256 updatedFunds;\n        bool running;\n    }\n\n    //id=>Project\n    mapping(uint256 => Project) public projects;\n    \n    //calling admin contract \n    FundRaising public FundRaisingContract;\n\n    uint256 public count;\n    address public bank;\n    //address of token \n    SahayogiToken public erc20;\n    \n    constructor(\n        SahayogiToken _erc20, \n        address _FundRaisingContract, \n        address _admin\n        ){\n        bank = 0x0A098Eda01Ce92ff4A4CCb7A4fFFb5A43EBC70DC;\n        FundRaisingContract =  FundRaising(_FundRaisingContract); \n        _setupRole(DEFAULT_ADMIN_ROLE,_admin);  \n        erc20 = _erc20;  \n    }\n  \n    modifier OnlyAdmin() {\n        require(hasRole(DEFAULT_ADMIN_ROLE, msg.sender), \"SAHAYOGI: MUST BE ADMIN\");\n        _;\n    }\n     modifier OnlyAgency() {\n        require(hasRole(AGENCY_ROLE, msg.sender), \"SAHAYOGI: MUST BE AGENCY\");\n        _;\n    }\n     //add aidAgency \n    function addAgency(address _account) public OnlyAdmin {\n        grantRole(AGENCY_ROLE, _account);\n    }\n\n    //project List\n    //check if project exist or not\n    //assign budgets to project\n   \n    //merkle distributor implementaion\n    //diff merkle for different projects\n    //after funding ends fund nikalnu\n\n    //FUNCTIONS\n    function createProject(\n      // address[] _vendor,\n        string calldata _projectName\n        // uint256 _totalFunds\n    ) public OnlyAgency {\n        count += 1;\n        projects[count] = Project({\n            projectName:_projectName,\n            updatedFunds:0,\n            // totalFunds:_totalFunds,\n            running: true\n        });\n        emit Create(count, _projectName);\n    }\n    //project id=>amount\n    mapping(uint256=>uint256) public fundedAmount;\n    function updateFund( uint256 _projectId,uint256 _amount) public OnlyAgency {\n     Project storage project = projects[_projectId];\n     require(project.running,\"Project is not available\"); \n     project.updatedFunds += _amount;\n     fundedAmount[_projectId] += _amount;\n     erc20.transferFrom(msg.sender,address(this),_amount);\n\n     emit Update(_projectId,_amount);\n    }\n    \n    function claimFunds(uint256 _id, uint256 _projectId) public OnlyAgency {\n    Project storage project = projects[_projectId];\n     require(project.running,\"Project is not available\");\n         return FundRaisingContract.claim(_id,_projectId);\n     }\n\n\n   //MERKLEDISTRIBUTOR\n\n   //projectid=>merkle root \n    mapping(uint256 => bytes32) public merkleRoot;\n    // This is a packed array of booleans for verifying the claims.\n    mapping(uint256 =>mapping(uint256 => uint256)) private claimedBitMap;\n\n    ///@dev set claim for the given index\n    function _setClaimed(uint256 projectId,uint256 index) internal {\n        uint256 claimedWordIndex = index / 256;\n        uint256 claimedBitIndex = index % 256;\n        claimedBitMap[projectId][claimedWordIndex] = claimedBitMap[projectId][claimedWordIndex] | (1 << claimedBitIndex);\n    }\n\n    ///@dev called by the user to claim the token\n    ///@param index sequential index \n    ///@param account account of the claim address\n    ///@param amount amount of claim \n    ///@param merkleProof merkleProof for the claim of the account\n    function claim(uint256 productId,uint256 index, address account, uint256 amount, bytes32[] calldata merkleProof) external override {\n        require(!isClaimed(productId,index), 'MerkleDistributor: Drop already claimed.');\n\n        // Verify the merkle proof.\n        bytes32 node = keccak256(abi.encodePacked(index, account, amount));\n        require(MerkleProof.verify(merkleProof,merkleRoot[productId], node), 'MerkleDistributor: Invalid proof.');\n\n        // Mark it claimed and send the token.\n        _setClaimed(productId,index);\n        IERC20(erc20).transfer(account, amount);\n\n        emit Claimed(productId,index, account, amount);\n    }\n\n    ///@dev look if already claimed or not for the index\n    ///@param index index of the token\n    function isClaimed(uint256 productId,uint256 index) public view override returns (bool) {\n        uint256 claimedWordIndex = index / 256;\n        uint256 claimedBitIndex = index % 256;\n        uint256 claimedWord = claimedBitMap[productId][claimedWordIndex];\n        uint256 mask = (1 << claimedBitIndex);\n        return claimedWord & mask == mask;\n    }\n\n    ///@dev update merkle root \n    ///@param _newMerkleRoot new merkle root for the distribution\n    function updateMerkleRoot(uint256 _projectId,bytes32 _newMerkleRoot) external OnlyAgency{\n        merkleRoot[_projectId] = _newMerkleRoot;\n    }\n\n    ///@dev called by the owner of the contract to rescue the token from the contract\n    ///@param amount amount of token to withdraw\n    function withdrawToken(uint256 amount) external {\n        IERC20(erc20).transfer(msg.sender, amount);\n    }\n   \n  \n}\n",
  "sourcePath": "/home/anisha/Desktop/sahayogi/contracts/SahayogiAgency.sol",
  "compiler": {
    "name": "solc",
    "version": "0.8.9+commit.e5eed63a.Emscripten.clang"
  },
  "schemaVersion": "3.4.4",
  "updatedAt": "2022-02-28T14:40:52.469Z",
  "networkType": "ethereum",
  "devdoc": {
    "kind": "dev",
    "methods": {
      "claim(uint256,uint256,address,uint256,bytes32[])": {
        "details": "called by the user to claim the token",
        "params": {
          "account": "account of the claim address",
          "amount": "amount of claim ",
          "index": "sequential index ",
          "merkleProof": "merkleProof for the claim of the account"
        }
      },
      "getRoleAdmin(bytes32)": {
        "details": "Returns the admin role that controls `role`. See {grantRole} and {revokeRole}. To change a role's admin, use {_setRoleAdmin}."
      },
      "grantRole(bytes32,address)": {
        "details": "Grants `role` to `account`. If `account` had not been already granted `role`, emits a {RoleGranted} event. Requirements: - the caller must have ``role``'s admin role."
      },
      "hasRole(bytes32,address)": {
        "details": "Returns `true` if `account` has been granted `role`."
      },
      "isClaimed(uint256,uint256)": {
        "details": "look if already claimed or not for the index",
        "params": {
          "index": "index of the token"
        }
      },
      "renounceRole(bytes32,address)": {
        "details": "Revokes `role` from the calling account. Roles are often managed via {grantRole} and {revokeRole}: this function's purpose is to provide a mechanism for accounts to lose their privileges if they are compromised (such as when a trusted device is misplaced). If the calling account had been granted `role`, emits a {RoleRevoked} event. Requirements: - the caller must be `account`."
      },
      "revokeRole(bytes32,address)": {
        "details": "Revokes `role` from `account`. If `account` had been granted `role`, emits a {RoleRevoked} event. Requirements: - the caller must have ``role``'s admin role."
      },
      "supportsInterface(bytes4)": {
        "details": "See {IERC165-supportsInterface}."
      },
      "updateMerkleRoot(uint256,bytes32)": {
        "details": "update merkle root ",
        "params": {
          "_newMerkleRoot": "new merkle root for the distribution"
        }
      },
      "withdrawToken(uint256)": {
        "details": "called by the owner of the contract to rescue the token from the contract",
        "params": {
          "amount": "amount of token to withdraw"
        }
      }
    },
    "version": 1
  },
  "userdoc": {
    "kind": "user",
    "methods": {},
    "version": 1
  }
}